:100000000C9400030C941D030C941D030C941D030D
:100010000C941D030C941D030C941D030C941D03E0
:100020000C941D030C941D030C94E2110C949E116E
:100030000C9401230C941D030C941D030C941D03BC
:100040000C941D030C941D030C941D030C941D03B0
:100050000C941D030C94A90D0C941D030C941D030A
:100060000C941D030C941D030C941D030C941D0390
:100070000C941D030C941D030C941D030C941D0380
:100080000C941D030C941D030C941D030C941D0370
:100090000C941D030C941D030C941D030C941D0360
:1000A0000C941D030C941D030C941D030000000010
:1000B0000000000000000000000000000000000040
:1000C0007E0F00D4FFFFFFC7000000780000000093
:1000D000000000002A2B28000000000000000000A3
:1000E0000000000000000029000000002C1E342049
:1000F000212224342627252E362D3738271E1F206F
:100100002122232425263333362E37381F040506B3
:100110000708090A0B0C0D0E0F10111213141516F7
:100120001718191A1B1C1D2F3130232D35040506F5
:100130000708090A0B0C0D0E0F10111213141516D7
:100140001718191A1B1C1D2F3130354C2F00290090
:1001500039000455E30000001E001C000C001300D1
:10016000E3004C001F0012000B000E00E7002A0005
:100170002000180008000D0050002C0021001B007A
:1001800004000A004F0049002200340036002D0010
:1001900000000155500002530000015400000855B2
:1001A0004F000253000001540000085523003402A0
:1001B000370038020000115524001A0015000F0006
:1001C00052004B00250007001700050051002800D1
:1001D000260006001600090020022B002700190047
:1001E000110010001F024E00300014001D001455B5
:1001F000380000002F020100010001000100000092
:1002000031021C020C021302010001002E00120236
:100210000B020E02010001003502180208020D0255
:10022000010001002E021B0204020A02010001006B
:100230003602260233002D020000010001000100F9
:1002400000000100000001000100010000000100A9
:10025000000001003702270233021E0200000100E5
:1002600023021A0215120F020100010024020702E4
:1002700017120502010001002202060216120902ED
:10028000210201002502190211121012350001008D
:10029000300214121D120100310000002900B300C9
:1002A000B400B200010000003A00010001000100AA
:1002B0000100BE003B00F400F2000100085DAB004D
:1002C0003C00F000F10001000100AC003D00F50031
:1002D000F30001000100BD003E000100010001002B
:1002E0000000AE0001000100000001000000480015
:1002F00001000100000001000000A8003F005200C2
:10030000510001000000B5004000240021001E0043
:100310000100A9004100250022001F003700B7009E
:1003200042002600230020002700B60043002502DB
:100330002E022D002E00AA00440045003800310096
:10034000B20000000A00000000000306B20008002E
:1003500001000000A800080002000200A000140034
:10036000030057494E5553420000000000000000B2
:1003700000008400040007002A00440065007600A5
:1003800069006300650049006E007400650072003A
:1003900066006100630065004700550049004400A5
:1003A0007300000050007B00390044004200370019
:1003B00046003100460044002D003700450037005C
:1003C00041002D0034003000300038002D0039008D
:1003D0003300360042002D00360042004100360056
:1003E0004300310039004100330030003800630021
:1003F0007D00000000001B0301636F6E6669677576
:1004000072652E6572676F646F782D657A2E636FE3
:100410006D0005010902A10185020901A10005097C
:100420001901290515002501950575018102950120
:10043000750381010501093009311581257F950278
:100440007508810609381581257F95017508810693
:10045000050C0A38021581257F950175088106C0B3
:10046000C005010980A101850319012AB700150102
:1004700026B700950175108100C0050C0901A10186
:10048000850419012AA002150126A0029501751004
:100490008100C005010906A1018505050719E029AC
:1004A000E715002501950875018102050719002946
:1004B000EF1500250195F075018102050819012944
:1004C00005950575019102950175039101C005011E
:1004D0000906A101050719E029E71500250195087E
:1004E000750181029501750881010507190029FF31
:1004F000150026FF009506750881000508190129D9
:1005000005950575019102950175039101C00902D8
:100510005200030100A0FA090400000103010100D8
:100520000921110100012240000705810308000A8A
:10053000090401000103000000092111010001224A
:10054000BC000705820320000A0904020002FF0024
:10055000000007058303400005070504034000056C
:1005600012011002000000089732744901000102D4
:100570000301040330000000160345007200670009
:100580006F0044006F007800200045005A00000012
:1005900030035A00530041002000540065006300FE
:1005A00068006E006F006C006F006700790020002B
:1005B0004C00610062007300200049006E0063007F
:1005C000000004030904050F3900021C100500DFB8
:1005D00060DDD88945C74C9CD2659D9E648A9F008A
:1005E000000306B20045001810050038B60834A90B
:1005F00009A0478BFDA0768815B665000142000072
:1006000011241FBECFEFDAE0DEBFCDBF12E0A0E0C5
:10061000B1E0E8E1F1E502C005900D92A030B1072C
:10062000D9F723E0A0E0B2E001C01D92A634B207E2
:10063000E1F70E94901F0C9458280C940000E8EDFC
:10064000F0E080818E7F80831092E2001092DA00C9
:100650001092E100A0EEB0E08C9181608C938081DB
:100660008F77808319BCA7EDB0E08C918E7F8C933F
:1006700080818F7E80831092130308952091E4007F
:100680003091E50095E6A9012091EC00822F817060
:1006900020FF06C08091E80080FF06C080E008953A
:1006A0002091E80022FD1AC080913803882389F048
:1006B000853089F08091EB0085FD0FC02091E4002A
:1006C0003091E50042175307F9F29150E1F684E0CA
:1006D000089582E0089583E0089581E00895EF92FF
:1006E000FF920F931F93CF937C018B010E943E03D7
:1006F000C82F882371F08C2FCF911F910F91FF90FD
:10070000EF900895F70181917F018093F1000150EE
:1007100011090115110579F38091E80085FDF2CFEB
:100720008091E8008E778093E8000E943E03882342
:1007300081F3C82FE0CF80913A0387FF13C08091E7
:10074000E80082FF06C08091E8008B778093E80084
:1007500004C0809138038111F2CF0895809138034D
:100760008823D9F38091E80080FFF8CF8091E800DA
:100770008E77ECCF982F9093E900242F762F50E0BE
:10078000891731F07091EC002091ED005091F0004C
:1007900021FD07C09F5F973071F78093E90081E0EA
:1007A00008953091EB003E7F3093EB003091ED00E7
:1007B0003D7F3093ED003091EB0031603093EB00E2
:1007C0007093EC002093ED005093F0002091EE0028
:1007D00027FDE0CF80E00895CF92DF92EF92FF9265
:1007E0000F931F93CF93DF93C8EDD0E088818F7E66
:1007F0008883E7EDF0E080818160808384E082BFC0
:1008000081E08093130388818E7F888302EE10E05D
:10081000F80110821092DA0081EEC82ED12CF60178
:10082000108288818F778883888180688883888117
:100830008F7D888319BC109238031092390310926F
:1008400037031092360390EEE92EF12CF7018081E8
:100850008B7F808388818160888342E060E080E0D4
:100860000E94BA03F60180818E7F8083F801808127
:1008700081608083808188608083F70180818E7FA2
:100880008083888180618883DF91CF911F910F9150
:10089000FF90EF90DF90CF900895FC01809140038E
:1008A0009091410386179707A0F06115710529F40F
:1008B0008091E8008E778093E80090E061157105E3
:1008C00051F4911108C08091E80082FF35C080E0AA
:1008D0000895BC01F2CF809138038823C9F1853097
:1008E000C9F18091E80083FD31C08091E80082FD6C
:1008F000EACF8091E80080FFE1CF8091F300209162
:10090000F200382F6115710519F02830310558F0C3
:1009100091E02830310509F090E08091E8008E7771
:100920008093E800CBCF84918093F10031966150A1
:1009300071092F5F3F4FE6CF80913803882341F044
:10094000853041F08091E80083FFBDCF81E00895BC
:1009500082E0089583E00895FC0180914003909126
:10096000410386179707A0F06115710529F490914E
:10097000E8009E779093E80090E06115710551F4CE
:10098000911108C08091E80082FF34C080E0089592
:10099000BC01F2CF809138038823C1F18530C1F1C9
:1009A0008091E80083FD30C08091E80082FDEACFAD
:1009B0008091E80080FFE1CF8091F3002091F20068
:1009C000382F6115710519F02830310558F091E084
:1009D0002830310509F090E02091E8002E7720932F
:1009E000E800CBCF81918093F100615071092F5FB6
:1009F0003F4FE7CF80913803882341F0853041F0A5
:100A00008091E80083FFBECF81E0089582E00895E1
:100A100083E00895809115030895209138032430D0
:100A200099F423E02093E90070E050E040E00E9458
:100A30006F03882321F0109211031092120380910A
:100A4000E8008E778093E80008959091F802803F47
:100A500059F48091F90287FF0DC01092F9029111AB
:100A60000BC01092F30208C0813F81F48091F9021B
:100A700018169CF3992381F08091FA029091FB0261
:100A8000892B09F064C01092F0020895823F49F466
:100A900097FFF0CF1092F8028091F9028111ECCF0C
:100AA000E0CF833F19F41916ACF3E4CF2091FA029A
:100AB000893F29F41216F4F61092FA02DBCF8A3F2E
:100AC00019F427FFD7CFF8CF2091FB028B3F29F4F1
:100AD00027FFD0CF1092FB02CDCF8C3F19F4121616
:100AE000CCF3C8CF843F31F48091F7028E7F80939E
:100AF000F702C0CF853F21F48091F7028D7FF7CFB9
:100B0000863F21F48091F7028B7FF1CF873F21F45C
:100B10008091F702877FEBCF883F21F48091F70225
:100B20008F7EE5CF8D3F31F48091C4028E7F80931C
:100B3000C402A0CF8E3F21F48091C4028D7FF7CFF5
:100B40008F3F09F097CF8091C4028B7FF0CF08953B
:100B50008091C40280FD1AC081FD14C082FD14C0C2
:100B60008091F002882391F08C3370F427E0829F0B
:100B7000C00111246CE370E00E94F523862F672BDF
:100B800029F0089583E0089587E0089581E00895AD
:100B90008091C40280FD16C081FD16C082FD18C080
:100BA0008091F302882391F08C3390F423E2829FAA
:100BB000C00111246CE370E00E94F523862F672B9F
:100BC00049F0089588E0089581E1089585E0089549
:100BD00083E2089581E00895803F31F40E94C805C2
:100BE00081958093F9020895813F19F40E94C80508
:100BF000F8CF823F31F40E94C80581958093F802B6
:100C00000895833F19F40E94C805F8CF893F29F45D
:100C10000E94A8058093FA0208958A3F21F40E9459
:100C2000A8058195F7CF8B3F31F40E94A8058195E7
:100C30008093FB0208958C3F19F40E94A805F8CF19
:100C4000843F31F48091F70281608093F702089528
:100C5000853F21F48091F7028260F7CF863F21F42F
:100C60008091F7028460F1CF873F21F48091F702F1
:100C70008860EBCF883F21F48091F7028061E5CF57
:100C80008D3F31F48091C40281608093C402089545
:100C90008E3F21F48091C4028260F7CF8F3FB9F775
:100CA0008091C4028460F1CF9C014FB7F894809189
:100CB000C0029091C102A091C202B091C3024FBF85
:100CC000821B930B0895209115012223C9F02091D6
:100CD000DD0227FF15C0E62FE695E695E695EE3195
:100CE000D8F4E80FF92FF11D677021E030E001C062
:100CF000220F6A95EAF7209582812823228308959E
:100D0000FC01329608962191621303C0DF0111970E
:100D10001C92E817F907B9F70895209115012223CD
:100D2000C1F02091DD0227FF14C0E62FE695E6957D
:100D3000E695EE31F8F4E80FF92FF11D677021E028
:100D400030E001C0220F6A95EAF78281822B82830C
:100D50000895FC0132962FEF30E04191641751F075
:100D60002F3F19F4411101C0232F3F5F3630A9F7FF
:100D70002F3F09F40895820F911D27FD9A95FC01DC
:100D800062830895CF92DF92EF92FF926C01EE247E
:100D9000FF2420E0C114D104E104F10419F0C701DB
:100DA000B60120E1C72ED82EE92EFF24C114D104AC
:100DB000E104F10419F0285FC701B6016B017C0161
:100DC00054E0F694E794D794C7945A95D1F7C11498
:100DD000D104E104F10419F02C5FC701B6016B01E5
:100DE0007C0142E0F694E794D794C7944A95D1F7F2
:100DF000C114D104E104F10419F02E5FC701B6015A
:100E00009695879577956795672B682B692B09F0E1
:100E10002F5F822FFF90EF90DF90CF900895809109
:100E2000BB0281111092BB0208958091BA02909189
:100E3000B902892B9091B802892B8093000290917E
:100E4000BB029923A1F0892B8093000280911501A8
:100E5000882341F18091DD0287FF24C08EE1E2E02A
:100E6000F2E090E0815000F591110E940F07E091AF
:100E7000DF02F091E0023097E1F0809115018823C4
:100E800059F08091DD0287FF07C0809100028093B6
:100E9000010285E0809300020280F381E02D80E072
:100EA00092E0099486E0DBCF21912223D9F29F5F63
:100EB000D9CF0895E92FEE0FE90FEE0F8E0F982F7F
:100EC000977086958695869525E0829FF00111247E
:100ED000E058FD4F50E040E080E0219130E0092EE5
:100EE00002C0369527950A94E2F721703327042E25
:100EF00001C0220F0A94EAF7822B4F5F5F4F453003
:100F0000510559F70895E92FEE0FE90FEE0F8E0FF7
:100F1000982F977041E001C0440F9A95EAF78695A3
:100F20008695869595E0899FF0011124E058FD4F44
:100F300030E020E070E05191DF011197CB01022EEB
:100F400002C0969587950A94E2F78170819585276E
:100F5000842385278C932F5F3F4F2530310559F728
:100F6000089580917F0290914E02981301C00895D8
:100F70008F5F8770FACF882341F080959091B902F6
:100F800089238093B9020C9415070895882339F0BA
:100F90009091B902982B9093B9020C94150708957B
:100FA000882341F080959091BA0289238093BA02F8
:100FB0000C9415070895882339F09091BA02982B64
:100FC0009093BA020C941507089520912E02309147
:100FD0002F022817390771F090932F0280932E0269
:100FE000E091DF02F091E002309721F00084F1857A
:100FF000E02D0994089520912C0230912D0228179C
:10100000390771F090932D0280932C02E091DF025A
:10101000F091E002309721F00680F781E02D0994ED
:101020000895E091DF02F091E002309721F0019005
:10103000F081E02D099480E008959091DD0292FF07
:1010400006C0282F28712830F9F4877F846093FF29
:1010500006C0282F28712831F1F4877E8461209101
:10106000DE0220FF06C0382F38713830D9F4877F70
:10107000816021FF06C0282F28712831D1F4877E96
:10108000816194FD877E0895282F24712430F9F61C
:101090008B7F8860DCCF282F2471243101F78B7E71
:1010A0008861DDCF382F3171313019F78E7F88603C
:1010B000E0CF282F2171213121F78E7E8861E1CF89
:1010C000CF93DF93972F70E026E0929F600D711D04
:1010D0001124FB0134E5839FE00DF11D1124EE0F77
:1010E000FF1FE45BFE4FC591D491CE01C238D105FC
:1010F000B9F1E8F5C133D10509F499C050F5C93209
:10110000D10509F48DC0CA32D10509F497C0C115C3
:1011100042E5D40708F0C4C0C11521E5D20708F0A4
:1011200038C1C83ED10508F09DC0C03ED10568F564
:10113000C83AD10508F089C0C53AD10508F005C103
:10114000C130D10511F1209709F443C02497E8F488
:1011500040C0C533D10509F45CC0C933D105B9F627
:101160002091DD02237089F080EE90E00EC0C33E36
:10117000D10591F168F4C03ED105F9F0C23ED10528
:1011800031F62091DD0222FD20C0DF91CF9108953C
:10119000C63ED10561F1C73ED10581F1C43ED105FE
:1011A00009F0B5CF2091DE0221FFEFCF8091DD0263
:1011B00084FD0FC087EE90E0E8CF2091DD0220FD96
:1011C00019C13091DE0230FFE0CF83EE90E024FFC2
:1011D000DCCF90E080E0D9CF2091DD0222FD0DC16F
:1011E0003091DE0230FDC0CF24FFCFCFF2CF20916F
:1011F000DD0223FFCACF24FDECCFDCCF2091DD023E
:1012000023FDFEC03091DE0231FFEECF84EE90E090
:10121000BCCF2091DD0225FFB8CF89E290E0B5CFA9
:101220002091DD0225FFB1CF85E390E0AECF209184
:10123000DD0226FFAACF8AE290E0A7CF2091DD024F
:1012400026FFA3CF81E390E0A0CFCF3BD10508F6E6
:10125000C85AD0E0CC0FDD1FCE52DE4F8881998175
:10126000946493CFC11530E2D30760F4C11541E017
:10127000D40708F08ACFCE019065C03FD10508F0B1
:1012800084CFA7CFC11580E4D80708F4A2CFC11539
:1012900090E5D90708F061C0CE019F70906A75CFC4
:1012A000C11526E5D20718F5C11535E5D30708F0B5
:1012B00086C0C11544E5D40708F07CC09C2F9695E4
:1012C0009695AE0143705527C115D34508F466C005
:1012D00021E030E002C0220F331F4A95E2F740E2DE
:1012E000949FC0011124822B932B9A684ECFC11575
:1012F0009AE5D90778F4C11529E5D20708F069C045
:10130000C11538E5D30708F464CF9C2F8827806F78
:10131000906A3BCFC1154BE5D40708F45ACFC115ED
:101320008CE5D80708F462C0CE0190568115904232
:1013300008F04FCF8D2F8F710E941D0890E0982FDD
:10134000882788279F718C2B42C0C55AD0E0C15393
:10135000DE4F888190E0906418CF9E01E4E03695DE
:101360002795EA95E1F723708C2F869586958370F3
:1013700030E2839FC0011124922BC37021E030E042
:1013800002C0220F331FCA95E2F7822B932B9C6871
:10139000FCCE9C2F8827816F906AF7CE21E030E049
:1013A00002C0220F331F4A95E2F740E2949FC0012A
:1013B0001124EBCF9C2F8827846F906AE6CE8C2F68
:1013C0000E941D0890E0982F882788279F719062BF
:1013D000DCCE8C2F8F700E941D0834E0D695C79507
:1013E0003A95E1F7CF709C2F9069CFCECE01992727
:1013F0009066CBCE89E390E0C8CE82EE90E0C5CE79
:1014000086EE90E0C2CEBF92CF92DF92EF92FF9233
:101410000F931F93CF93DF938C01C0900C03D09058
:101420000D03E0900E03F0900F038091BC029091A9
:10143000BD02A091BE02B091BF02C82AD92AEA2AF1
:10144000FB2ACFE1D0E0BC2ED701C6010C2E04C090
:10145000B695A795979587950A94D2F780FD0EC00B
:10146000219788F7B12C8B2DDF91CF911F910F9190
:10147000FF90EF90DF90CF90BF900895B8018C2F30
:101480000E946008019761F3EECFCF93DF93EC01E8
:101490000E94030ABE01DF91CF910C9460080E9464
:1014A000450A292F2F7092959F7092509E3078F4A4
:1014B000E92FF0E0E65AF74D0C940924803F19F02B
:1014C00020F4883E20F481E00895843FE1F380E039
:1014D0000895883EC0F3813FD1F7F5CF822F8695DE
:1014E000869586950895CF93DF939C013A952115B3
:1014F0003F4168F5EC01CC27D170DC01AA27B2701E
:10150000AC01442754709C012227387094FF11C00D
:1015100080E1CD2B09F480E0AB2B09F08062452BF4
:1015200009F08064232B09F08068FB01DF91CF91E3
:10153000099481E0CD2B09F480E0AB2B09F08260A7
:10154000452B09F08460232B81F38860EECFDF9177
:10155000CF91089527982F98089526982E9808954A
:1015600025982D98089556985E980895279A2F9A51
:101570000895269A2E9A0895259A2D9A0895CF9225
:10158000DF92EF92FF92CF936B017C010E94C20623
:10159000C82F0E94B30A0E94B00A0E94AD0A0E949E
:1015A000AA0AC150C73040F4EC2FF0E0E859F74DDB
:1015B0000C9409240E94BC0AC701B601CF91FF9088
:1015C000EF90DF90CF9008950E94BC0A0E94B90A64
:1015D000F3CF0E94BC0A0E94B60AEECF0E94BC0A5A
:1015E0000E94B90AF8CF2098289821982998229823
:1015F0002A9823982B9852985A9853985B983E981B
:10160000469808958098889A8198899A84988C9AA7
:1016100085988D9A86988E9A87988F9A0895CF93F9
:1016200084E090E00E944624C82F81E290E00E946E
:101630004624982F8C2FCF910895CF93DF9300D01D
:101640000F92CDB7DEB790913803943019F58983A6
:101650007B836A8382E08093E9008FEF9091E800BA
:10166000815095FD06C095ED9A95F1F70000811126
:10167000F5CF8091E80085FF0DC050E040E063E0C9
:1016800070E0CE0101960E946F038091E8008E7792
:101690008093E8000F900F900F90DF91CF91089505
:1016A000BC0184E00C941D0BBC0183E00C941D0B69
:1016B0009C0182E08093E9009FEF8091E8009150C7
:1016C00085FD06C085ED8A95F1F700009111F5CFF3
:1016D0008091E80085FF0CC050E040E066E070E0DB
:1016E000C9010E946F038091E8008E778093E80023
:1016F0000895CF93DF93EC01809115018823B1F118
:101700008091DD0287FF32C060E282E08093E900D1
:101710008FEF9091E800815095FD06C095ED9A9568
:10172000F1F700008111F5CF8091E80085FF1BC023
:101730008091150170E050E040E0811104C050E05C
:1017400040E068E070E0CE010E946F038091E80005
:101750008E778093E80080E2FE01A6E1B3E001907D
:101760000D928A95E1F7DF91CF91089568E081E0CD
:10177000CDCFEF92FF920F931F93CF93DF930E94F1
:10178000B30A0E94B00A0E94AD0A0E94AA0A88E821
:10179000E82EF12C8FEF90E0F701918380830AE827
:1017A00010E0F80191838083CCE8D0E099838883AE
:1017B0000E94BC0AFFEF20E782E0F1502040804009
:1017C000E1F700C000000E94B90A9FEFE0E7F2E0F5
:1017D0009150E040F040E1F700C000000E94B60ADE
:1017E0002FEF80E792E0215080409040E1F700C069
:1017F00000000E94B00AEFEFF0E722E0E150F04075
:101800002040E1F700C000000E94AD0A8FEF90E792
:10181000E2E081509040E040E1F700C000000E940B
:10182000AA0A8091CB028770FFEF8F9FC00111241D
:1018300095958795959587959927F701918380834D
:10184000F80191838083998388830E94B30A0E9460
:10185000B00A0E94AD0ADF91CF911F910F91FF90C6
:10186000EF900C94AA0A6FEE7EEF90E080E00E9469
:10187000782460E082E090E00E945A2460E083E0F7
:1018800090E00E945A241092BC021092BD02109265
:10189000BE021092BF0260E084E090E00E945A24F1
:1018A00060E081E290E00E945A2460E085E090E0F0
:1018B0000E945A2460E086E090E00E945A246FEF74
:1018C00087E090E00E945A2440E050E0BA0188E0AE
:1018D00090E00E946C2460E08DE090E00E945A2429
:1018E00040E050E0BA0188E190E00E946C2460E0A2
:1018F00087E190E00E945A2440E050E0BA018CE178
:1019000090E00E946C2460E080E290E00E945A2403
:101910001092CB021092CC021092CD021092CE0205
:1019200084E080618093CB024091CB025091CC0245
:101930006091CD027091CE028FE090E00E946C2405
:1019400040E050E0BA0183E190E00C946C24CF9326
:10195000C82F873070F58091090190910A01892B79
:1019600089F564E670E080E40E942E2390930A01DA
:1019700080930901892BD1F464E670E082E10E9432
:101980008A2390930A0180930901892B79F481E0DD
:1019900090E001C0880FCA95EAF764E670E0809590
:1019A0000E948A2390930A0180930901CF910C949D
:1019B000DD238A30B9F040F4883071F0893079F055
:1019C000209A2898CF9108958C3091F070F08D3046
:1019D000B9F73E9A4698F6CF219A2998F3CF229AE2
:1019E0002A98F0CF239A2B98EDCF529A5A98EACFA3
:1019F000539A5B98E7CF80E290E090930A0180933E
:101A000009018091200281110EC00E94282381E0EB
:101A1000809320022FEF83ED90E32150804090408F
:101A2000E1F700C0000064E670E080E40E942E232D
:101A300090930A0180930901892B09F04EC064E656
:101A400070E080E00E948A2390930A01809309014C
:101A5000892B09F042C064E670E080E00E948A238E
:101A600090930A0180930901892BB9F564E670E02F
:101A70008FE30E948A2390930A0180930901892BA6
:101A800061F50E94DD2364E670E080E40E942E236D
:101A900090930A0180930901892BF9F464E670E0C0
:101AA0008CE00E948A2390930A0180930901892B7C
:101AB000A1F464E670E080E00E948A2390930A011A
:101AC00080930901892B49F464E670E08FE30E945A
:101AD0008A2390930A01809309010E94DD2380915B
:101AE00009010895CF93873050F5809109019091B5
:101AF0000A01C0E0892B71F464E670E081E40E9481
:101B00002E2390930A0180930901892B31F0C0E0C4
:101B10000E94DD238C2FCF91089584E690E00E94EF
:101B2000B92397FF05C090930A0180930901EFCF75
:101B3000C82FC09510920A0110920901E9CFCFB1C8
:101B40008FB1869586958C73C3708C2BC82FC095EA
:101B5000E1CF78941F921FB61F9211248F939F9309
:101B6000AF93BF938091C0029091C102A091C20235
:101B7000B091C3020196A11DB11D8093C002909344
:101B8000C102A093C202B093C302BF91AF919F91D3
:101B90008F911F901FBE1F9018952FB7F8948091BA
:101BA000C0029091C102A091C202B091C3022FBFA6
:101BB00008950E94CD0D9C019091F8028091F90248
:101BC000982B21F03093F5022093F4029091FA02C1
:101BD0008091FB02982B21F03093F2022093F102C6
:101BE000E091DF02F091E002309749F082E08093CB
:101BF000F6020480F581E02D86EF92E009940895C5
:101C00001092B9021092B8020E94150786E0E6EF22
:101C1000F2E0DF011D928A95E9F71092F30210922B
:101C2000F0021092C4020E94D90D90E080E00E9460
:101C3000FB0790E080E00C94E507CF92DF92EF92F3
:101C4000FF92CF93DF9300D000D0CDB7DEB70E94D4
:101C5000BF0A6B017C0180911003882321F08091E1
:101C60001103811115C0C0920C03D0920D03E092B4
:101C70000E03F0920F030E94000E0F900F900F9032
:101C80000F90DF91CF91FF90EF90DF90CF9008956C
:101C9000198282E08A83C701B6010E94C2068B8343
:101CA0008EEF8C8364E0CE0101960E940D05DBCFA0
:101CB0000F931F9341E050E060E070E004C0440FD8
:101CC000551F661F771F8A95D2F7CB01BA01609521
:101CD00070958095909500910C0310910D032091C3
:101CE0000E0330910F0360237123822393231F91EE
:101CF0000F910C941D0E9091B702809589238093CB
:101D0000B702282F277071F4282F082E000C330BF0
:101D10009217130639F08595859585950E94580E82
:101D20001092B70208950F931F9341E050E060E0D6
:101D300070E004C0440F551F661F771F8A95D2F7C5
:101D400080910C0390910D03A0910E03B0910F03AD
:101D50008A019B01082B192B2A2B3B2BC901B801A7
:101D60001F910F910C941D0E6093BC027093BD02E5
:101D70008093BE029093BF020C94000E1092BA02A0
:101D800080911501E2E0F2E0882359F08091DD02B4
:101D900087FF07C08EE1DF011D928A95E9F70C9459
:101DA000000E86E0F8CF1F93CF93DF93CDB7DEB759
:101DB000AA970FB6F894DEBF0FBECDBF8AE393E0BB
:101DC0002091F100FC012193CF01F3E082349F07C1
:101DD000B9F780913B03893009F444C018F582308B
:101DE00009F4B7C0833009F46CC0813031F58091BB
:101DF0003A03813A11F58091E800877F8093E800EB
:101E000080913E0390913F03892B41F560E286E18A
:101E100093E070E00E94AC048091E8008B7780939F
:101E2000E8000BC08B3009F469C008F481C082342B
:101E300009F4A0C0853409F4BAC08091E80083FF9A
:101E400065C280913A0390913B039A3008F05EC2DC
:101E5000E92FF0E0E159F74D0C94092460E090E09F
:101E600080E0D7CF80913A03813239F780913E03E9
:101E700090913F03029708F78091E800877F809355
:101E8000E8008091E80082FF17C09091F3008091F4
:101E9000F200029729F48091F1008B7F813021F4C8
:101EA0008091F100809315038091E8008B778093F7
:101EB000E8000E949B03C1CF809138038111E1CFDC
:101EC000BCCF80913A03813A09F0B7CF80913E03AD
:101ED00090913F03892B09F0B0CF8091E800877F74
:101EE0008093E8008091E80080FFFCCF809115018D
:101EF0008093F1008091E8008E77D9CF80913A03EA
:101F0000813209F09ACF80913E0390913F03892B53
:101F100009F093CF8091E800877F8093E8000E94CA
:101F20009B0380913C03809315010E94BE0E85CFD8
:101F300080913A03813209F080CF8091E800877F59
:101F40008093E8000E949B0380913D0380931403DB
:101F500074CF80913A03813A09F06FCF8091E80005
:101F6000877F8093E8008091E80080FFFCCF80911C
:101F70001403BECF80913A03803C09F05ECF80917C
:101F80003E0390913F03029739F580913C03909175
:101F90003D03892B09F58091E800877F8093E80055
:101FA0006BE170E086EF93E00E944D0482CF809158
:101FB0003A03803C09F041CF80913E0390913F036A
:101FC000079751F48091E800877F8093E80062EBE7
:101FD00070E084E493E0E8CF8091EB00806280932E
:101FE000EB002BCF803899F0823809F08FC18091B7
:101FF0003E038F70873008F089C18093E90080919B
:10200000EB0085FB882780F91092E90006C08091DB
:10201000360390913703911182609091E800977F89
:102020009093E8008093F1001092F1008091E80015
:102030008E7768C1882309F456C1823009F066C1E1
:1020400080913C03811159C180913E038F702FEF25
:10205000280F263008F05AC18093E9002091EB0048
:1020600020FF4BC1933031F48091EB00806280936C
:10207000EB0043C19091EB0090619093EB0021E065
:1020800030E001C0220F8A95EAF72093EA0010920F
:10209000EA008091EB008860EACF811137C110918E
:1020A0003C031F778091E3008078812B8093E300CD
:1020B0008091E800877F8093E8000E949B038091D5
:1020C000E80080FFFCCF8091E30080688093E3000C
:1020D00082E0111183E08093380318C18058823068
:1020E00008F014C180913C0390913D038C3D23E0A6
:1020F0009207A1F583E08A838AE289834FB7F89437
:10210000DE01139620E03EE051E2E32FF0E0509331
:102110005700E49120FF03C0E295EF703F5FEF703E
:102120008E2F90E0EA30C0F0C7968D939D932F5F7D
:10213000243159F74FBF8091E800877F8093E800F2
:102140006AE270E0CE0101960E94AC048091E80042
:102150008B778093E800DAC0C096E7CF40913E03CA
:1021600050913F03292F33272330310569F1A0F423
:102170002130310509F46CC062E570E08EE095E035
:102180002230310509F0C2C02091E800277F20935A
:10219000E8000E944D04DACF2132310509F440C035
:1021A0002232310509F448C02F30310509F0AEC0A4
:1021B000E8ECF5E0E4916E2F70E086EC95E06115B7
:1021C000710509F4A3C0E0CF992781309105C1F0D2
:1021D000009771F082309105D9F0039709F096C00D
:1021E000E2E7F5E0E4916E2F70E082E795E0E7CF5B
:1021F000E2ECF5E0E4916E2F70E082EC95E0DFCF49
:10220000E0E9F5E0E4916E2F70E080E995E0D7CF4A
:10221000E8E7F5E0E4916E2F70E088E795E0CFCF36
:1022200041155105D1F04130510509F06FC069E009
:1022300070E089E395E0A8CF4115510599F0413050
:10224000510509F063C06CEB70E082E194E09CCF33
:1022500062E170E080E695E097CF69E070E080E2AF
:1022600095E092CF60E470E08EEC94E08DCF803802
:1022700009F04CC08091E800877F8093E80080914E
:1022800039038093F100D2CE811140C010913C03FC
:102290001230E0F58091E800877F8093E80010938A
:1022A00039030E949B03112311F084E005C0809143
:1022B000E30087FDFACF81E08093380342E061ECD0
:1022C00081E00E94BA0342E261EC82E00E94BA031C
:1022D00042E361EC83E00E94BA0342E360EC84E0F5
:1022E0000E94BA0313C080913C03813079F481E0ED
:1022F000933009F080E0809337031092E9008091D9
:10230000E800877F8093E8000E949B038091E800AB
:1023100083FF0AC08091E800877F8093E800809166
:10232000EB0080628093EB00AA960FB6F894DEBFB4
:102330000FBECDBFDF91CF911F9108951F920F92D5
:102340000FB60F9211242F933F934F935F936F9388
:102350007F938F939F93AF93BF93CF93DF93EF932D
:10236000FF93D091E900DF708091EC00C82FC1701D
:1023700080FDC0E81092E9008091F000877F809393
:10238000F00078940E94D30E1092E9008091F00042
:1023900088608093F000CD2BCF70C093E900FF914F
:1023A000EF91DF91CF91BF91AF919F918F917F91ED
:1023B0006F915F914F913F912F910F900FBE0F90B2
:1023C0001F9018951F920F920FB60F9211242F9302
:1023D0003F934F935F936F937F938F939F93AF93AD
:1023E000BF93EF93FF938091E10082FF09C080913A
:1023F000E20082FF05C08091E1008B7F8093E100C5
:102400008091DA0080FF24C08091D80080FF20C036
:102410008091DA008E7F8093DA008091D90080FF6E
:102420009FC080E189BD82E189BD09B400FEFDCF76
:1024300081E08093380380911303811109C00E94C9
:102440001F030E94EC038091E20084608093E2000D
:102450008091E10080FF17C08091E20080FF13C0EF
:102460008091E2008E7F8093E2008091E2008061A3
:102470008093E2008091D80080628093D80019BCDC
:1024800085E0809338038091E10084FF2DC0809126
:10249000E20084FF29C080E189BD82E189BD89B560
:1024A000982F917080FFFBCF8091D8008F7D809313
:1024B000D8008091E1008F7E8093E1008091E2005E
:1024C0008F7E8093E2008091E20081608093E20041
:1024D00080913903882309F449C084E0809338034C
:1024E0000E94BE0E0E9411088091E10083FF27C068
:1024F0008091E20083FF23C08091E100877F809379
:10250000E10082E080933803109239038091E1006A
:102510008E7F8093E1008091E2008E7F8093E200C5
:102520008091E20080618093E20042E060E080E020
:102530000E94BA038091F00088608093F000FF91C0
:10254000EF91BF91AF919F918F917F916F915F912B
:102550004F913F912F910F900FBE0F901F901895A4
:1025600019BC109238031092130372CF8091E300CC
:1025700087FD93E090933803B3CF8823B1F19CEFAC
:10258000980F913A38F4682F80E092E00E94630639
:102590000C94150790E2980F983088F4877021E02A
:1025A00030E0A90102C0440F551F8A95E2F7CA0125
:1025B00080959091BA0289238093BA02E9CF9BE576
:1025C000980F933020F490E080E00C94FB0798E59E
:1025D000980F973120F490E080E00C94E507803F5D
:1025E00020F00E9425050C94D90D0895CF93DF9318
:1025F000EC010E94BD126BEB77E0CE01DF91CF9131
:102600000C94730ACF93C82F882309F46EC08CEF03
:102610008C0F813AB8F580911501882311F18091D2
:10262000DD0287FF1EC0EC2FE695E695E695F0E00B
:10263000E050FE4F828190E04C2F477021E030E067
:1026400002C0220F331F4A95E2F782239323892B7E
:1026500089F06C2F80E092E00E9463060E941507CB
:1026600009C0E2E0F2E08191C81799F382E0E83016
:10267000F807C9F76C2F80E092E00E948D06CF9199
:102680000C94150780E28C0F883068F4C77021E045
:1026900030E001C0220FCA95EAF78091BA02822B7E
:1026A0008093BA02ECCFEBE5EC0FE33040F4F0E0BE
:1026B000E153FE4F808190E0CF910C94FB07E8E559
:1026C000EC0FE73150F4F0E0EE0FFF1FEE52FE4F3B
:1026D00080819181CF910C94E507C03F30F08C2F21
:1026E0000E94EC05CF910C94D90DCF910895CF9312
:1026F000C82F0E940213C93349F42FEF87EE93E0ED
:10270000215080409040E1F700C000008C2FCF9115
:102710000C94BD12CF93C82F66EC77E00E94730A29
:102720008C2FCF910C940213CF93DF93C0913F0273
:10273000D09140022097E1F08091410290914202B5
:102740000E9454062091070130910801281739078B
:1027500090F4D260CE010E948A13CE010E94F6123C
:1027600010924202109241021092400210923F02D7
:10277000DF91CF9108958C2F0E947713F1CF0F93A3
:102780001F93CF93DF93C42FD22FFC018281882324
:10279000A1F0409343020E94CD0D90932B028093B1
:1027A0002A02C77081E001C0880FCA95EAF7DF915D
:1027B000CF911F910F910C94DB07109143021413DA
:1027C00035C080912A0290912B020E945406883CC9
:1027D000910560F5C0E2CD0F1D17B9F080E2810FC1
:1027E000883040F4177081E001C0880F1A95EAF72D
:1027F0000E94D007C83048F481E09D2F977001C037
:10280000880F9A95EAF70E94DB07802F0E947713C2
:10281000C83098F4D77081E001C0880FDA95EAF7E4
:10282000DF91CF911F910F910C94D007C77081E079
:1028300001C0880FCA95EAF7F3CFDF91CF911F91BE
:102840000F9108952F923F924F925F926F927F92D5
:102850008F929F92AF92BF92CF92DF92EF92FF92B0
:102860000F931F93CF93DF93CDB7DEB728970FB6A3
:10287000F894DEBF0FBECDBF7C01FC018381948143
:10288000892B39F01081D180812F8D218F3F09F064
:1028900029C728960FB6F894DEBF0FBECDBFDF91D3
:1028A000CF911F910F91FF90EF90DF90CF90BF904D
:1028B000AF909F908F907F906F905F904F903F90E0
:1028C0002F9008950E94030A082F682F89819A810A
:1028D0000E948307E12FF0E026E0D29EE00DF11D7B
:1028E000112434E5039FE00DF11D1124EE0FFF1FAD
:1028F000E45BFE4F0591149180911003882321F031
:10290000809111038111DBC60932FDE51F07F1F546
:10291000F7018281882309F44DC08091CB0291E0B8
:10292000980F9770887F953008F4892B8093CB029D
:102930008091CB028770FFEF8F9FC0011124959586
:10294000879595958795992790938900809388001E
:1029500090938B0080938A0090938D0080938C00DD
:102960004091CB025091CC026091CD027091CE0289
:102970008FE090E00E946C2460910C0370910D0335
:1029800080910E0390910F030E94BF0AF70182818C
:10299000882309F44EC09801215E3C45253031055D
:1029A00008F047C06FE1600F6093C7028CE090E0D1
:1029B0000E945A24F70182818823C1F00831FCE586
:1029C0001F0709F40DC108F0A5C00430110570F00F
:1029D0000E31110508F4B4C18091070190910801EE
:1029E000059607313CE5130709F4FFC00E949413D4
:1029F000033F3CE5130709F4DFC108F0C7C1083DF8
:102A00009CE5190709F4D2C1093DECE51E0709F45C
:102A1000E5C1073DFCE51F0709F097C006E221EE7E
:102A200041EE67ED7CE5C7010E94BF13A1C181E1C2
:102A30004CC617FFBFCF8823C9F28091BA0280939A
:102A40003E021092BA028091C702813009F441C05F
:102A50008823D9F1823009F445C0843009F449C093
:102A60008FE39CE90197F1F700C000005801E8945A
:102A7000B7F8FCE0CF2ED12C95010C2C02C0369576
:102A800027950A94E2F72F7087E290E029F0822FD1
:102A900090E02A3098F54D960E94771394E0C91A79
:102AA000D108ECEFCE16EFEFDE0631F78091C702CA
:102AB000813051F1882321F1823011F1843041F1CC
:102AC00080913E028093BA0275CF82EE0E9402137B
:102AD000C7CF88E193E00E948A1388E193E00E94C7
:102AE000F612BECF82EE0E94021387E50E94771392
:102AF000B7CF86EE0E94771388E1F8CF0697CCCF48
:102B000082EE0E94BD12DCCF8CE20E947713D8CFF8
:102B100088E2FBCF0A318CE5180781F008F46AC01F
:102B20000B31ECE51E0771F00C31FCE51F0709F0D5
:102B30005DCF109206010E94941307C08091060198
:102B40008111F7CF81E080930601F701828188230C
:102B500009F4F3C5109243020230FCE51F0708F4A4
:102B6000D5C506312CE5120738F098012A5F3C459F
:102B70002730310508F0CAC50E940F0B9093DE0282
:102B80008093DD020F303CE5130709F4E8C108F03B
:102B900062C108309CE5190709F4CBC108F037C1C0
:102BA0000430FCE51F0709F4B8C108F01DC102306C
:102BB0003CE5130709F4A9C103301C4509F4A9C178
:102BC0006091DD021091DE0284E090E00E945A24C0
:102BD000612F81E290E00E945A240E94BE0EC8C07C
:102BE00080910701909108010597909308018093C7
:102BF0000701ABCF809108018F93809107018F93DC
:102C000086E191E09F938F931F9288E08F939F922C
:102C10008F920E94B9250FB6F894DEBF0FBECDBFCC
:102C20006401EAE04E2EF6012081222309F48DCFC3
:102C3000213009F046C091818281913049F4F2E05F
:102C4000CF0ED11C0E9477132FEFC21AD20AEBCFFE
:102C5000923031F422E0C20ED11C0E940213F4CF54
:102C6000933031F432E0C30ED11C0E94BD12ECCF80
:102C7000943021F08FEFC81AD80AE6CF92E0C90E3F
:102C8000D11C30E020E0A6014F5F5F4F8053990BCD
:102C90008A30910550F021503109B0F28FE99FE060
:102CA0000197F1F700C00000F6CF429EB001439EAD
:102CB000700D11249C01260F371FF60181816A01D6
:102CC000E2CFE22FF0E0E453FF4F5490822F86953D
:102CD0008695869590E0FC01E454FF4F6490277040
:102CE000712C022E02C0759467940A94E2F7E1E019
:102CF0006E227724FC01E455FF4FA490B12C02C052
:102D0000B594A7942A95E2F7F1E0AF22BB246114B1
:102D1000710419F081EE0E940213A114B10419F09C
:102D200086EE0E940213852D0E947713AB2819F0BE
:102D300086EE0E94BD12672809F486CF81EE95CFFA
:102D40000E94941380910601882309F4FECE80919D
:102D5000BA028111FACE0E94CD0D90934202809367
:102D600041021093400200933F0282E00E947B0EDA
:102D70008091B702877009F48CCDF7018281882396
:102D800009F487CD82E00E947B0E83CD053F2CE5C0
:102D90001207F1F0B8F0063F8CE5180709F0D5CE20
:102DA00007E225EE46EE66EF7CE53DCE07E225EE36
:102DB00045EE68ED7CE537CE06E221EE40EE63EFAE
:102DC0007CE531CE07E225EE44EE64EF7CE52BCEC8
:102DD00006E221EE42EE65EF7CE525CE08E221E039
:102DE00045EE69ED7CE51FCE8091DD028061063005
:102DF0009CE5190709F447C08091DD02886007301F
:102E00001C4508F440C08091DD0280623CC00B305C
:102E1000FCE51F0709F49BC068F409303CE5130783
:102E200009F48BC00A301C4509F0CACE8091DD023E
:102E30008C6029C08091DD028B7F0D309CE51907E5
:102E400011F18091DD028D7F0E301C45E0F0809104
:102E5000DD02877F18C00A3FFCE51F0709F461C047
:102E600060F502313CE5130709F481C078F40031C4
:102E70009CE5190709F477C08091DD028F7B013151
:102E80001C4509F09DCE8093DD029ACE0431FCE50D
:102E90001F0709F47AC008F470C005311C4509F019
:102EA0008FCE8091DD0282FB992790F921E0922755
:102EB00090FB82F990FB83F9E6CF0D3F8CE5180774
:102EC00009F449C070F40B3FECE51E0771F18091E5
:102ED000DE028E7F0C3F1C4509F072CE8093DE022D
:102EE0006FCE0F3F2CE5120709F44BC060F10115BE
:102EF0001D4509F065CE8091DE02982F9095917066
:102F00008E7F892B90FB81F9E9CF8091DD02816072
:102F1000BACF8091DD028260B6CF8091DD028460FD
:102F2000B2CF8091DE028160D9CF8091DE028260D3
:102F3000D5CF8091DD028064A6CF0E94BE0E809125
:102F4000DD028068A0CF8091DE028360C7CF8091D0
:102F5000DD028E7F98CF8091DE028D7FBFCF809182
:102F6000DD028F7E90CF8091DD028F7D8CCF0E941D
:102F7000BE0E8091DD028F7786CF8091DD02837F48
:102F800082CF8091DE028C7FA9CF0E94BE0E9091ED
:102F9000DD02892F97FB87F9805875CF882309F4C4
:102FA00055C00E3D9CE5190709F446C00830EDE513
:102FB0001E0709F444C001151C4509F047C00E94D2
:102FC000BE0E2FEF34E38CE0215030408040E1F71B
:102FD00000C00000F89481E08093E00080E28093DC
:102FE000D8001092C900EFE1FEE43197F1F700C07C
:102FF00000001DBA109268001CBC10BE1FBA1092CF
:103000007A0010926E0010926F0010927100109270
:1030100072001092C9001092BC0014B817B81AB808
:103020001DB810BA1092BC0015B818B81BB81EB85D
:1030300011BA0C94003F9CCE0E94330C99CE809123
:10304000120391E089278093120392CEF701008149
:103050001181882309F444C0C8010E94030AD82EB4
:10306000682FC8010E948307B8018D2D0E94600857
:10307000082FD92EB82EF701C580C2947FE0C72251
:10308000128111111092B9028091B7028770C1F0BC
:103090001123B1F08D2D807F803449F090E2900FA4
:1030A000983070F0803619F4F6EFBF1649F082E0E0
:1030B0000E947B0E8091B7028770AA24A39481118D
:1030C000A12C7D2C72945FE075226BE0262E2714D4
:1030D00008F441C0E72DF0E0E758F74D0C940924BF
:1030E000C8010E945A07D82EBFCF2D2D2F70C22E97
:1030F0008D2D807F19F0C29440EFC4221123C9F0B6
:10310000CC2069F080E2800F883010F0B1100BC045
:103110008091BA02C82AC092BA020E941507802F75
:103120000E94021318C08091B902C82AC092B90245
:10313000F4CF802F0E94BD12CC2069F0C094005EB5
:10314000083010F0B11056C08091BA02C822C09267
:10315000BA020E941507272D2850330B2430310561
:1031600010F40E941108112379F08D2D807F803694
:1031700019F436EFB31641F080914502823009F020
:1031800096C283E080934502AA20A9F08091B702FD
:1031900080FD11C0F70112828595859585950E9465
:1031A000930EC7010E9422148091B70285958595E0
:1031B00085950E94580E85E0F701D40101900D928B
:1031C0008A95E1F789819A810E945A079A81E9815B
:1031D000F0E026E0929FE00DF11D112434E5839F7D
:1031E000E00DF11D1124EE0FFF1FE45BFE4F8591F2
:1031F00094914FCB8091B902C822C092B902A9CF55
:103200003D2D3F70632E8D2D807F803219F06294AA
:1032100030EF6322BB2041F081E0B81631F1112379
:1032200081F1CC2049F17BCF112391F09091BB0229
:10323000862D892BC11003C00E94DB078CCFE1E0F3
:10324000CE12FACF891709F486CF8093BB0283CFC1
:10325000C11006C00E940F07862D0E94D0077BCFA9
:10326000F1E0CF1609F477CFF5CF112339F02224FE
:1032700023942C1408F46FCF862DDECFC1106BCFB2
:10328000EBCFCC2049F329E3322EB31009C02FEF46
:1032900037EE83E0215030408040E1F700C000006D
:1032A000802F0E94BD1257CF8D2D869586958370F5
:1032B00069F0813009F04FCF802F9D2D937011114F
:1032C00002C090E080E00E94E50745CF802F9D2D51
:1032D0009370111102C090E080E00E94FB073BCF89
:1032E000802F112329F00E94EC050E94D90D33CFC5
:1032F0000E942505FACF8D2D837009F067C011114A
:103300002ACF202F229526952770220F220F402F9B
:103310004F7050E070E060E0022E04C0440F551F73
:10332000661F771F0A94D2F780E090E0DC0104FF6B
:103330000FC08FE090E0A0E0B0E004C0880F991FBC
:10334000AA1FBB1F2A95D2F780959095A095B0959E
:103350002D2D269526952370223029F1D8F4209022
:10336000BC023090BD024090BE025090BF0221309E
:1033700069F0842B952BA62BB72BBC01CD016221C4
:103380007321842195210E94B40EE5CE4229532950
:10339000642975291A012B01282A392A4A2A5B2A0D
:1033A000C201B101F0CF842B952BA62BB72B209116
:1033B000BC023091BD024091BE025091BF02BC01DF
:1033C000CD016227732784279527DDCF86951123AA
:1033D00011F08D2D8170882309F4BDCE202F229508
:1033E00026952770220F220F402F4F7050E070E07B
:1033F00060E0022E04C0440F551F661F771F0A9419
:10340000D2F780E090E0DC0104FF0FC08FE090E095
:10341000A0E0B0E004C0880F991FAA1FBB1F2A9527
:10342000D2F780959095A095B0952D2D269526954F
:103430002370223029F1D8F420900C0330900D0332
:1034400040900E0350900F03213069F0842B952B90
:10345000A62BB72BBC01CD016221732184219521BC
:103460000E941D0E78CE42295329642975291A011C
:103470002B01282A392A4A2A5B2AC201B101F0CF3E
:10348000842B952BA62BB72B20910C0330910D0389
:1034900040910E0350910F03BC01CD0162277327A9
:1034A00084279527DDCF2D2D2F70C22E112329F0D3
:1034B000822F0E94930E802FBFCE802F0E94D007B4
:1034C0008C2D0E94580E47CE802F32EFB31609F490
:1034D00052C03B1578F090EFB91629F1E1EFBE1616
:1034E00009F441C0112309F46AC0C11018CE8D2D12
:1034F0008F713EC0F3EFBF1609F442C094EF292E3E
:10350000B210F0CF112309F44FC00D2D0F71802F91
:103510000E94930E28E0029FC001112483608093D3
:10352000B702802F25C01123C1F0C11014CE2D2D5C
:103530002F7161E070E080E090E004C0660F771FBB
:10354000881F991F2A95D2F720910C0330910D0303
:1035500040910E0350910F03A1CF332433943C14B8
:1035600008F4F9CDE4CF8D2D8F71112309F4A9CF83
:103570000E94930EF0CD8D2D8F711123C9F3A1CF31
:1035800060E070E0CB01112309F46ACF2D2D2F717B
:1035900061E070E080E090E004C0660F771F881F54
:1035A000991F2A95D2F75CCF81E00E947B0E31E013
:1035B0003C1508F0D0CD82E00E947B0ECCCDCC2013
:1035C00059F0893309F06CCE8FEF97EEE3E081502C
:1035D0009040E040E1F762CE8D2D8F7172CFE0E137
:1035E000E00FE73008F03EC0F0E0EB57F74D0C94E9
:1035F0000924112309F4AFCD8091470291E0892776
:1036000080934702A8CD10934702A5CD81E0812782
:10361000F7CF1111A0CD81E0F3CF11119CCD109205
:10362000470299CD112321F082E080934502F3CF28
:1036300080914502823021F481E0809345028BCD58
:10364000833009F088CD10924502E9CF112339F07B
:1036500080914602882381F2109246027CCDCC20D4
:1036600059F279CD80914602CC20A9F0882341F00F
:103670008091470291E08927809347021092460289
:10368000802F11114DCD0E94BD1286E0F7011192DD
:103690008A95E9F760CD882309F45DCD11115BCDE2
:1036A0008091470291E0892780934702D5CF8130EE
:1036B00009F06ACD109245021092470265CDF701DC
:1036C000828119828111B3C982E18A83F7018081E5
:1036D0008B8381818C838EEF8D8365E0C4010E9492
:1036E0000D0512C985E09E012F5F3F4F4901D901A9
:1036F00001900D928A95E1F7F701228189819A81E3
:103700002111E0C80E945A07082FE4C80631FCE5E1
:103710001F0709F043CC8091BA028A7A91E009F43C
:1037200090E09093440269E2811165E380E092E0C9
:103730000E948D060E9415071BCB06311C4509F01F
:1037400085CC8091440269E2811165E380E092E0DA
:103750000E946306EFCF1F93CF93DF9380914D02BA
:10376000807FA9F480914A02882389F080917F02AA
:10377000D0914E026091480270914902A0914B0293
:10378000B0914C02C62FC72316E0D81304C0DF91B6
:10379000CF911F91089590E0109711F0CF3F19F449
:1037A00001968770F2CF189F9001199F300D112458
:1037B000F901E15BFD4F41814713F2CF4081461390
:1037C000EFCF42814111ECCF438154814A1B5B0B07
:1037D000483C510528F780914D028F70806180939D
:1037E0004D02F901EC5AFD4F80818F70806180831A
:1037F00088E492E00E942214DF91CF911F910C94F3
:10380000B107AF92BF92CF92DF92EF92FF920F93E8
:103810001F93CF93DF93CDB7DEB761970FB6F894C0
:10382000DEBF0FBECDBF8C0185E0F801DE011D9625
:1038300001900D928A95E1F7F80180819181E280F3
:1038400028E4A22E22E0B22E60914B0270914C022D
:103850006115710509F43EC1309148024091490259
:10386000232F24232F3F09F435C1C380D480F09047
:103870004A02F601E61BF70BFF2009F4FBC020917A
:103880004D02522F507FE83CF10508F0BBC05111AA
:1038900078C0FE2C491321C038131FC0E1101DC091
:1038A0002F70206120934D02C5010E942214809147
:1038B0004D02F80185838F2D61960FB6F894DEBF17
:1038C0000FBECDBFDF91CF911F910F91FF90EF9071
:1038D000DF90CF90BF90AF900895CD2829F0282F8A
:1038E00029232F3F09F022C120E0F22FF170DF2EB3
:1038F00020FF3DC020917F0240914E0256E02413EC
:1039000015C08D879E878D859E850E94450A292F2B
:1039100022952F702230F8F0243020F59F70F9F0B6
:10392000F8019581907FD9F4D12C1FC030E0529FCF
:10393000F001539FF00D1124E15BFD4F618196135F
:1039400006C06081861303C06281E61210C02F5F3B
:103950003F4F2770D4CF9F7011F0882329F3805EEA
:10396000883010F3C8010E942214FD2CA4CFEE2051
:1039700009F4A1CF80914D02816080934D02F12C1A
:103980009ACF491312C0381310C0E1100EC0F801CD
:103990002583C8010E94221486E0F801A8E4B2E061
:1039A00001900D928A95E1F786CF8D879E878D8550
:1039B0009E850E944F0A882309F1EE20F9F080913C
:1039C0004D02803270F020914802309149023887D0
:1039D0002F831986DB86CA868C87CE0107960E94C4
:1039E000221486E0F801A8E4B2E001900D928A95D5
:1039F000E1F70E94AB1BFF24F3945DCFC8010E9446
:103A00002214F9CF51110AC088E492E00E942214D6
:103A100086E0F50111928A95E9F7B1CF49130FC0FD
:103A200038130DC0E1100BC0F8012583C8010E94B6
:103A3000221486E0F50111928A95E9F73CCF8D8733
:103A40009E878D859E850E944F0A8823B9F2EE20BD
:103A5000A9F280914D02803220F2209148023091EB
:103A600049023A8329831B82DD82CC828E83CE0178
:103A70000196B5CFE83CF105E0F6FE2CEE2009F406
:103A8000BDCF491316C0381314C080914D0280FD7C
:103A900083CF982F907F09F47FCFF8018583903FE3
:103AA00009F477CF982F907F905F8F70892B858353
:103AB00070CF8D879E878D859E850E944F0A8111CC
:103AC00090CF80914D02816080934D02C8010E9489
:103AD0002214F1CEEE2009F491CF8D879E878D853B
:103AE0009E850E944F0AF82E882309F487CF86E02E
:103AF000F801A8E4B2E001900D928A95E1F7809177
:103B00004802909149020E94450A92959F70963012
:103B100051F4863F41F08091470291E089278093DC
:103B20004702909346020E94AB1BC5CE21E02E2592
:103B3000DCCE1F93CF93DF93CDB7DEB767970FB679
:103B4000F894DEBF0FBECDBF6D8B7E8B8F8B8E89C1
:103B50009F89892BE1F0852F84238F3F09F098C03E
:103B60005FEF4FEF14C030914702332309F44EC08A
:103B7000E42FF0E036E0539FE00DF11D1124EE0F2D
:103B8000FF1FE95DFE4F40815181822B8C931A8A81
:103B9000198A4B8B5C8B85E0FE017396DE011D96C6
:103BA00001900D928A95E1F786E0FE013D96DE01D7
:103BB000179601900D928A95E1F7CE0107960E9423
:103BC000011C811112C086E0FE013796DE011196BC
:103BD00001900D928A95E1F78A859B85892B29F0C2
:103BE0008F81988589238F3FC9F516E080917F02E8
:103BF00090914E02891320C067960FB6F894DEBFED
:103C00000FBECDBFDF91CF911F9108958095822384
:103C1000BDCF96E0929FD001939FB00D1124A15B80
:103C2000BD4FFE01319601900D929A95E1F7809378
:103C30004E020E94B107D9CF819FC0011124815B40
:103C40009D4F0E94011C8823B9F280917F0290E071
:103C500001968770992780937F02C8CF20914E02EA
:103C600030E0C90101968770992740917F0248177B
:103C7000190679F60E94BE0E10924E0210927F0233
:103C800086E0E8E4F2E0DF011D928A95E9F7ADCF26
:103C900081E090E0042E01C0880F0A94EAF7A52F76
:103CA000B0E0A05DBD4F2C913D8931115CCF322F2A
:103CB00038235BCF8F929F92BF92CF92DF92EF9289
:103CC000FF920F931F93CF93DF93809109019091FF
:103CD0000A01892B91F0809121028F5F809321024C
:103CE00081110BC00E94FB0C90E090930A0180931D
:103CF0000901892B11F40E94B90B2FEC822E22E0CE
:103D0000922E740110E000E097E0C92EC00E802FC3
:103D10000E94A70C8C2D0E94A70C802F0E94720D70
:103D2000E70199917E01D12C891729F0FE01319785
:103D30008083DD24D3948C2D0E94720DF70196812F
:103D4000891709F47AC0868381E08D29182B0E9497
:103D5000F30A0F5F0730C1F60E94CD0D6091230278
:103D600070912402909324028093230220912202D6
:103D700030E0261B370B820F931F6BEF70E00E9421
:103D8000E123E82E392F082F80932202F09026029B
:103D9000FF2009F4A3C010922602E091C502F09121
:103DA000C602AF01425F5F4F20E08BEFB82E6BEF92
:103DB00070E0A191AB3F99F0CA2ED12C8E2D932F9C
:103DC0000A17E8F18C199D09092E000CAA0BBB0BF0
:103DD0004E97A105B105C8F1DF011197BC92E41718
:103DE000F50739F720932602111102C0211178C07E
:103DF00010922502A091C502B091C60290912602B0
:103E0000E2EEF2E080E03191E40129914E013217B7
:103E100051F03C913B3FD9F40C93AF014150510913
:103E2000EA01288391E01196D2E0E03FFD0759F7BF
:103E3000909326028093250257C080E086CFDB0155
:103E4000AC19BD098A0F9B1FBFCF2F2DC8CF81E0B2
:103E5000EACF9170892B09F458C080912802909183
:103E600029028130984780F01092120360910C0370
:103E700070910D0380910E0390910F030E94BF0A71
:103E80001092290210922802809128029091290212
:103E900001969093290280932802812FDF91CF9180
:103EA0001F910F91FF90EF90DF90CF90BF909F9068
:103EB0008F9008950E94B90A2EC0892B71F3109239
:103EC00029021092280260910C0370910D038091D9
:103ED0000E0390910F030E94BF0ADFCF111188CF0C
:103EE00080912502811184CF80912802909129022E
:103EF00020911203222309F3009709F0AACF0E9410
:103F0000B00A0E94AD0A0E94AA0AC0912702CC23DF
:103F100089F20E94AD0A81E0C827C09327029DCF95
:103F2000CDB7DEB7C955D1090FB6F894DEBF0FBEC5
:103F3000CDBF84B7877F84BF0FB6F894A8958091D2
:103F40006000886180936000109260000FBE80E87E
:103F500090E00FB6F89480936100909361000FBEDB
:103F600085B7806885BF85B7806885BF0E941F03BD
:103F70000E94EC038091E20084608093E2007894D8
:103F8000809138038823A1F01091E9001F7090916F
:103F9000EC00892F817090FD80E8182B1092E900C9
:103FA0008091E80083FD0E94D30E1F701093E900FA
:103FB00082E084BD93E095BD9AEF97BD80936E003B
:103FC0000E94FB0C90E090930A01809309010E94EB
:103FD000F30A0E94020BEFECF2E08DED92E0A2EE0C
:103FE000B2E011921D928E179F07D9F78EE090E0F4
:103FF0000E948E248093C5029093C602FC010E9607
:104000002BEF2193E817F907E1F790E080E00E9499
:1040100054248F3E9E4F11F00E94330C8CE090E0B0
:104020000E94462490E0B0E0A0E08093C702909305
:10403000C802A093C902B093CA0289EA80938000A3
:1040400089E08093810024982C983F988AB18F7CD6
:104050008AB96E98479A8BB180638BB9769A8FE054
:1040600090E00E944E246093CB027093CC02809328
:10407000CD029093CE0267704FEF649FB001112480
:104080007595679575956795772770938900609307
:10409000880070938B0060938A0070938D0060930A
:1040A0008C000E94B90B90E080E00E9454248F3E67
:1040B0009E4F11F00E94330C82E090E00E94462453
:1040C0008093FD020E940F0B9093DE028093DD022D
:1040D00083E090E00E944624682F70E090E080E04A
:1040E0000E94B40E60910C0370910D0380910E0339
:1040F00090910F030E94BF0A8BE091E09093E00241
:104100008093DF02EE24EA949EEFF92E23E0422E04
:1041100031E4A32EB12CAC0EBD1EF2E0AF0EB11CEB
:1041200040EFC42E42E0D42E50E1552E68E1862E99
:10413000912C80913803853009F44CC10E945A1E9D
:10414000EEEFF2E0A2EEB2E010E000E0302F8D9151
:104150002191281709F48AC190E0772473942827C5
:10416000422F472109F47DC161969FAF6197629606
:104170003FAF6297872191E009F490E063969FAF8B
:1041800063970E94CD0D8160782F65969FAF8EAFAB
:10419000659761964FAD619762965FAD6297639642
:1041A0006FAD639765968FAD65970E94991DF80175
:1041B000E250FD4F80817826708286E0E6EFF2E0E3
:1041C000DE01119601900D928A95E1F77090F80248
:1041D0006090F9021091FA020091FB021092F8022D
:1041E0001092F9021092FA021092FB02872D862992
:1041F00009F448C08091F4029091F5020E9454069F
:104200009C019091F302992309F4F7C125313105FE
:10421000C8F19F3F19F09F5F9093F302772059F008
:104220000E94C8059FEF17140CF491E0899F802D20
:1042300011248093F802662059F00E94C8059FEF70
:1042400016140CF491E0899F802D11248093F902BB
:104250003091F8023323B1F02091F902222391F03A
:1042600045EB3403C0011124992309F425C190932F
:10427000F80245EB240390011124332309F420C1F3
:104280003093F902812F802B09F448C08091F1020C
:104290009091F2020E9454069C019091F0029923A1
:1042A00009F4A7C125313105C8F19F3F19F09F5F7F
:1042B0009093F002112359F00E94A8059FEF111668
:1042C0000CF491E0899F802D11248093FA02002341
:1042D00059F00E94A8059FEF10160CF491E0899FF9
:1042E000802D11248093FB023091FA023323B1F028
:1042F0002091FB02222391F045EB3403C0011124ED
:10430000992309F4E1C09093FA0245EB240390014C
:104310001124332309F4DCC03093FB028091F802AE
:104320009091F902892B9091FA02892B9091FB02CE
:10433000892B11F00E94D90D86E0FE013196A6EF7F
:10434000B2E001900D928A95E1F70E9411089091D8
:10435000FC02891721F00E9411088093FC028091D1
:104360003803843009F0E5CE8093E9008091E800BD
:1043700082FFDFCE8091E80090E085FF06C00E94BA
:104380003E03882309F4A8C091E08091E8008B7770
:104390008093E800992309F4CCCE19811111BAC099
:1043A00080911203882309F4CFC01092120381E098
:1043B0008093110322961FAE229723961FAE239758
:1043C0002496FFAE249763E0CE018F5B9F4F0E943F
:1043D0000D05AFCE80913803843011F11092E102C7
:1043E00080E40FB6F894A895809260000FBE809389
:1043F000600083B7817F846083BF83B7816083BFA0
:104400007894889583B78E7F83BF0FB6F894A8956C
:1044100080916000886180936000109260000FBE00
:1044200080913703882309F484CE0E94FB0C90E02E
:1044300090930A01809309010E94F30A0E94020BE3
:10444000E2EEF2E01192CE16DF06E1F70E945A1E6C
:10445000E2EEF2E081918111B7C0CE16DF06D1F70E
:1044600068CE9F5F770C963009F07ACE0F5F1F4FB2
:104470000E30110509F06ACE6696EFAE6697679624
:10448000EFAE679768961FAE68970E94CD0D81606A
:10449000782F6A969FAF8EAF6A9766964FAD6697F4
:1044A00067965FAD679768966FAD68976A968FADB0
:1044B0006A970E94991D81CE81E08093F802D9CE3F
:1044C00081E08093F902DECE81E08093FA021DCF75
:1044D00081E08093FB0222CF80E4682E712C8E0154
:1044E0000F5F1F4F8091E80085FD0AC08091E800B2
:1044F0008B778093E8000E943E03882399F344CF92
:104500008091F100F80181938F01F1E06F1A710839
:1045100049F73ACF1130C1F422961FAE2297239665
:104520001FAF23978CE0EBE1F1E0D50101900D92F4
:104530008A95E1F76096FFAE60976FE0CE018F5BE2
:104540009F4F0E940D05F5CD809111038823C1F185
:10455000123041F01330F1F081E022968FAF2297B4
:1045600061E032CF60910C0370910D0380910E03D6
:1045700090910F030E94C20622961FAE22972396A7
:104580001FAF239724968FAF24972596FFAE2597CC
:1045900064E01ACF8A81813041F0882341F0823073
:1045A000D9F681E08093100302C010921003229686
:1045B0001FAE229723964FAE239780911003E2CF30
:1045C0002296EFAE2297CCCF59BC82E189BD09B4C7
:1045D00000FEFDCF8091D8008F7D8093D800809120
:1045E000E00082608093E0008091E00081FDFCCFDC
:1045F000A0CD232B09F05BCE91CE232B09F00BCE5F
:1046000041CE1F921FB61F9211248F939F93AF9399
:10461000BF938091E102811113C08091C0029091FB
:10462000C102A091C202B091C3024196A11DB11D69
:104630008093C0029093C102A093C202B093C302C0
:10464000BF91AF919F918F911F901FBE1F901895A2
:104650001092B9008CE08093B8000895EF92FF9219
:104660000F931F93CF93DF93182FEB011092BC0091
:1046700084EA8093BC000E94CD0D7C018091BC0037
:1046800087FF27C08091B900887F883029F080910A
:10469000B900887F8031D9F51093BB0084E88093FE
:1046A000BC000E94CD0D8C018091BC0087FF24C00E
:1046B0002091B900287F90E080E02831B1F081E0BE
:1046C00090E0203411F490E080E09195819591097B
:1046D0000CC0CF3FDC0791F20E94CD0D8E199F09CF
:1046E0008C179D0758F28EEF9FEFDF91CF911F91AE
:1046F0000F91FF90EF900895CF3FDC07A9F20E9441
:10470000CD0D801B910B8C179D0770F2ECCF8FEFB6
:104710009FEFEBCF0F931F93CF93DF93EB0180932A
:10472000BB0084E88093BC000E94CD0D8C01809179
:10473000BC0087FF11C02091B900287F81E090E084
:10474000283211F490E080E0919581959109DF91F4
:10475000CF911F910F910895CF3FDC0741F30E9445
:10476000CD0D801B910B8C179D0708F38EEF9FEFEB
:10477000EECF0F931F93CF93DF93EC0184E88093E8
:10478000BC000E94CD0D8C018091BC0087FF08C049
:104790008091BB0090E0DF91CF911F910F91089520
:1047A000CF3FDC0789F30E94CD0D801B910B8C1746
:1047B0009D0750F38EEF9FEFEECF84E98093BC000E
:1047C0000895AA1BBB1B51E107C0AA1FBB1FA61758
:1047D000B70710F0A61BB70B881F991F5A95A9F7AA
:1047E00080959095BC01CD01089597FB072E16F496
:1047F000009407D077FD09D00E94E12307FC05D083
:104800003EF4909581959F4F0895709561957F4FE7
:104810000895EE0FFF1F0590F491E02D09942F925B
:104820003F924F925F926F927F928F929F92AF9240
:10483000BF92CF92DF92EF92FF920F931F93CF938D
:10484000DF93CDB7DEB7CA1BDB0B0FB6F894DEBF24
:104850000FBECDBF09942A88398848885F846E844A
:104860007D848C849B84AA84B984C884DF80EE8094
:10487000FD800C811B81AA81B981CE0FD11D0FB69D
:10488000F894DEBF0FBECDBFED010895F999FECFBC
:1048900092BD81BDF89A992780B50895A6E1B0E050
:1048A00044E050E00C948024A8E1B0E042E050E005
:1048B0000C948024262FF999FECF92BD81BDF89AE1
:1048C000019700B4021639F01FBA20BD0FB6F89454
:1048D000FA9AF99A0FBE08950396272F0E945B2437
:1048E0000E945A24252F0E945B24242F0C945B24C1
:1048F0000196272F0E945B240C945A24DC01CB01E3
:10490000FC01F999FECF06C0F2BDE1BDF89A3196DF
:1049100000B40D9241505040B8F708950F931F9383
:10492000CF93DF938230910510F482E090E0E09124
:104930004403F091450330E020E0B0E0A0E0309780
:1049400099F42115310509F447C0281B390B24308F
:104950003105C0F58A819B816115710571F1FB01FB
:1049600093838283FE0111C04081518102811381B2
:1049700048175907F8F04817590799F4109761F04C
:1049800012960C93129713961C933296CF01DF91D7
:10499000CF911F910F910895009344031093450305
:1049A000F4CF2115310519F04217530718F49A0175
:1049B000BD01EF01DF01F801C2CF90934503809361
:1049C0004403D0CFFE01E20FF31F81939193225055
:1049D000310939832883DACF209142033091430390
:1049E000232B41F4209102013091030130934303C2
:1049F00020934203209100013091010121153105DE
:104A000041F42DB73EB74091040150910501241B9C
:104A1000350B40914203509143034217530708F06E
:104A2000B5CF241B350B2817390708F4AFCFBC01CD
:104A30006E5F7F4F2617370708F4A8CF640F751FE6
:104A40007093430360934203FA01819391939ECF45
:104A5000CF93DF930097E9F0FC0132971382128223
:104A6000C0914403D0914503DE0130E020E020975F
:104A7000A1F420813181820F931F20914203309154
:104A800043032817390709F067C0F0934303E09305
:104A90004203DF91CF910895DA01AE17BF0708F006
:104AA00040C012964D915C9113979D01411551059F
:104AB00099F7D9011396FC93EE9312974D915D915E
:104AC000A40FB51FEA17FB0779F480819181029644
:104AD000840F951FD90111969C938E9382819381A7
:104AE00013969C938E931297B0E0A0E08A819B81ED
:104AF0000097B9F5FE0181919191E80FF91F80911E
:104B00004203909143038E179F0719F6109761F5A2
:104B10001092450310924403D0934303C093420381
:104B2000B8CFB383A28340815181840F951FA8170A
:104B3000B90771F44E5F5F4F8D919C911197480FAB
:104B4000591F5183408312968D919C919383828348
:104B50002115310509F0ADCFF0934503E0934403EF
:104B600098CFDE01EC01C2CF13961C921E921297D1
:104B7000D3CFAEE0B0E0EFEBF5E20C941D240D894D
:104B80001E898F89988D26E02C831A83098397FFCD
:104B900002C080E090E801979E838D83AE01455E60
:104BA0005F4F698D7A8DCE0101960E94E9254D8176
:104BB0005E8157FD0AC02F813885421753070CF4D8
:104BC0009A01020F131FF80110822E96E4E00C9454
:104BD0003924ABE0B0E0EFEEF5E20C940F247C0159
:104BE0003B018A01FC0117821682838181FFB9C1D2
:104BF0009AE0292ECE0101965C01F7019381F30121
:104C000093FD859193FF81913F01882309F446C16B
:104C1000853239F493FD859193FF81913F0185326F
:104C200029F4B70190E00E94CA27E7CF912C412CCC
:104C3000512CFFE1F51538F08B3209F188F4803200
:104C400001F1833221F157FC3AC020ED280F2A30C0
:104C500040F556FE1FC0929C200D1124922E06C0D6
:104C60008D3291F0803379F7689450F8F30193FD19
:104C7000859193FF81913F018111DBCF20C0689422
:104C800051F8689452F8F2CF689453F8EFCF6894D3
:104C900054F8ECCF429C200D1124422E689455F814
:104CA000E5CF8E3229F456FCF9C0689456F8DECF71
:104CB0008C3619F4689457F8D9CF8836B9F2982F02
:104CC0009F7D95549330C0F08336A1F18337C1F1B5
:104CD000833509F05BC0F801C190D1908F01692D37
:104CE00070E056FC02C06FEF7FEFC6010E94B42750
:104CF0004C01689457F80AC00C5F1F4F2FE32983BB
:104D000088248394912C6501E89457F853FC04C0DF
:104D10004814190409F018F5342C8114910431F564
:104D2000332009F46ACFB70180E290E00E94CA27DD
:104D30003A94F6CFF801808189830E5F1F4FE0CF50
:104D4000F801C190D1908F01692D70E056FC02C02E
:104D50006FEF7FEFC6010E94BF274C01D5CFB7018F
:104D600080E290E00E94CA274A94D2CFF60157FC15
:104D7000859157FE81916F01B70190E00E94CA278B
:104D800031103A94F1E08F1A9108C7CF843619F0A8
:104D9000893609F074C0F80157FE6AC061917191BB
:104DA000819191918F01252D2F76D22E97FF09C0E9
:104DB00090958095709561957F4F8F4F9F4F689428
:104DC000D7F82AE030E0A5010E94FA27C82ECA18B9
:104DD0008C2C5D2CD6FE0CC0E89450F8C91440F41D
:104DE000D4FE05C0D2FC03C0FD2DFE7E5F2E892CB3
:104DF00054FE8FC0FE01EC0DF11D8081803309F05F
:104E000081C0252D297E522E852D8870382E53FC89
:104E10008FC050FE89C09C2C841418F44C0C942C28
:104E2000981854FE8BC0B70180E390E00E94CA2717
:104E300052FE09C088E790E051FE02C088E590E08C
:104E4000B7010E94CA27C91408F484C0CA94D12C9F
:104E50009FEFC91AD90ACA0CDB1CF60182916F01B7
:104E6000B70190E00E94CA27AC14BD04B1F758CF37
:104E700061917191072E000C880B990B93CFD52C63
:104E8000E894D4F82AE030E0853739F1952D997F00
:104E9000D92E8F3601F148F48835A9F0F7018681C3
:104EA00097812B96E2E10C942B24803749F08837C8
:104EB000A9F7D4FE02C06894D2F820E130E00DC01A
:104EC0006894D4F8F6CF54FE03C0E92FE660DE2ED6
:104ED00020E132E002C028E030E0F801D7FE0DC04A
:104EE00061917191819191918F01A5010E94FA27A1
:104EF000C82ECA18E894D7F86BCF6191719190E0F1
:104F000080E0F2CF52FC02C083947ECF83948394DE
:104F10007BCF852D867809F477CFF6CFB70180E275
:104F200090E00E94CA2783948414C0F3312C79CF77
:104F3000342C3818841408F474CFF8CF852D867873
:104F400009F481CF8BE251FE80E257FC8DE2B7017C
:104F500090E077CFB70180E390E00E94CA279A944F
:104F600072CF8FEF9FEF9DCFFC0105906150704095
:104F70000110D8F7809590958E0F9F1F0895FC0122
:104F80006150704001900110D8F7809590958E0F78
:104F90009F1F08950F931F93CF93DF93182F092F0F
:104FA000EB018B8181FD09C01FEF0FEF812F902F47
:104FB000DF91CF911F910F91089582FF14C02E8130
:104FC0003F818C819D81281739073CF4E881F98164
:104FD000CF0101969983888310838E819F810196EA
:104FE0009F838E83E3CFE885F985812F0995892BEF
:104FF000A1F3DACFFA01AA27283051F1203181F14B
:10500000E8946F936E7F6E5F7F4F8F4F9F4FAF4FD0
:10501000B1E03ED0B4E03CD0670F781F891F9A1FE3
:10502000A11D680F791F8A1F911DA11D6A0F711D97
:10503000811D911DA11D20D009F468943F912AE0A3
:10504000269F11243019305D3193DEF6CF0108958B
:10505000462F4770405D4193B3E00FD0C9F7F6CFBC
:10506000462F4F70405D4A3318F0495D31FD405284
:10507000419302D0A9F7EACFB4E0A695979587951A
:1050800077956795BA95C9F70097610571050895F9
:105090009B01AC010A2E06945795479537952795A5
:1050A000BA95C9F7620F731F841F951FA01D08953D
:1050B000F894FFCF5E0A5E0A670A670A690A670A00
:1050C000670A670A5E0A5E0A6E0A670A670A6E0A5C
:1050D000DA0AE60AEB0AE40AE90AF00AEE0AF20F33
:1050E0001A1086111A1086114D106E108611371184
:1050F0004411751875180019001954197019EF1A10
:10510000AB187B19531A641A641AF91A261B031B6D
:08511000061B0D1B091B121BFD
:1051180000004603200001FA0020000A05790B5818
:105128000B540B500B010A25640A00415058425297
:105138002F6459724B6700000D010D020D030D0419
:105148000D050D000C010C020C030C040C050C00E1
:105158000B010B020B030B040B050B000A010A02DF
:105168000A030A040A050A000901090209030904D5
:1051780009050900080108020803080408050800D1
:1051880007010702070307040705070006010602CF
:1051980006030604060506000501050205030504C5
:1051A80005050500040104020403040404050400C1
:1051B80003010302030303040305030002010202BF
:1051C80002030204020502000101010201030104B5
:1051D8000105010000010002000300040005008130
:1051E8008283E200E900EA00B500B600B700CD000E
:1051F8008301CC008A019201940121022302240236
:105208002502260227022A02B300B4006F007000AC
:00000001FF
