:100000000C9408030C9425030C9425030C942503ED
:100010000C9425030C9425030C9425030C942503C0
:100020000C9425030C9425030C94BA0D0C946E12B9
:100030000C948F230C9425030C9425030C94250316
:100040000C9425030C9425030C9425030C94250390
:100050000C9425030C94910E0C9425030C94250309
:100060000C9425030C9425030C9425030C94250370
:100070000C9425030C9425030C9425030C94250360
:100080000C9425030C9425030C9425030C94250350
:100090000C9425030C9425030C9425030C94250340
:1000A0000C9425030C9425030C9425030501098069
:1000B000A101850319012AB700150126B700950192
:1000C00075108100C0050C0901A101850419012AE0
:1000D000A002150126A002950175108100C005013E
:1000E0000906A1018505050719E029E71500250185
:1000F0009508750181020507190029EF15002501F2
:1001000095F075018102050819012905950575010C
:100110009102950175039101C005010902A1010930
:1001200001A100050919012905150025019505758D
:10013000018102950175038101050109300931151D
:1001400081257F95027508810609381581257F95DF
:100150000175088106050C0A38021581257F950175
:1001600075088106C0C005010906A101050719E04F
:1001700029E715002501950875018102950175088B
:1001800081010507190029FF150026FF0095067556
:100190000881000508190129059505750191029549
:1001A0000175039101C00000000000000000000084
:1001B000000000000000000000007E0F00D4FFFFE0
:1001C000FFC70000007800000000000000002A2B9C
:1001D00028000000000000000000000000000000F7
:1001E0000029000000002C1E342021222434262760
:1001F000252E362D3738271E1F2021222324252681
:100200003333362E37381F0405060708090A0B0C4E
:100210000D0E0F101112131415161718191A1B1C96
:100220001D2F3130232D350405060708090A0B0C54
:100230000D0E0F101112131415161718191A1B1C76
:100240001D2F3130354C2F0029003900E100E70027
:1002500000001E001C000B000A00E3004E001F00FF
:1002600013000C000E00E6002A0020001200080017
:100270000D0050002C0021001B00040018004F004E
:100280004B002200340036002D0000004C005000CE
:10029000025300000154000001554F0002530000BA
:1002A00001540000085523003402370038020000D2
:1002B0001155240009001700070052004A002500CC
:1002C0000600160019005100280026001000110039
:1002D000050020022B0027001A0015000F001F0246
:1002E0004D00300014001D00E500380000002F0212
:1002F0000100010001000100000031021C020B029C
:100300000A02010001002E0013020C020E0201007D
:1003100001003502120208020D02010001002E0246
:100320001B020402180201000100360226023300FB
:100330002D0200000100010001000000010000008A
:10034000010001000100000001000000010037026F
:10035000270233021E0200000100230209021712C5
:100360000702010001002402060216121902010010
:1003700001002202101211120502210201002502C1
:100380001A0215120F0235000100300214121D125C
:100390000100310000002900B300B400B2000100E8
:1003A00000003A000100010001000100BE003B0016
:1003B000F400F2000100095DAB003C00F000F10028
:1003C00001000100AC003D00F500F3000100010058
:1003D000BD003E000100010001000000AE00010070
:1003E00001000000010000004800010001000000C1
:1003F00001000000A8003F00520051000100000071
:10040000B5004000240021001E000100A9004100A9
:10041000250022001F003700B700420026002300FD
:1004200020002700B600430025022E022D002E00DA
:10043000AA004400450038003100B20000000A0064
:10044000000000000306B200080001000000A80040
:10045000080002000300A0001400030057494E5595
:10046000534200000000000000000000840004006F
:1004700007002A00440065007600690063006500FB
:1004800049006E0074006500720066006100630040
:10049000650047005500490044007300000050000B
:1004A0007B0039004400420037004600310046001E
:1004B00044002D0037004500370041002D00340076
:1004C0003000300038002D00390033003600420083
:1004D0002D00360042004100360043003100390053
:1004E000410033003000380063007D000000000050
:1004F0001B0301636F6E6669677572652E657267AF
:100500006F646F782D657A2E636F6D0009026B0042
:10051000040100A0FA0904000001030101000921FF
:10052000110100012240000705810308000A0904A7
:1005300001000103010200092111010001224D0007
:100540000705820308000A090402000103000000F5
:10055000092111010001226D000705830320000A13
:100560000904030002FF00000007058403400005A2
:10057000070505034000051201100200000008975E
:100580003274490100010200011603450072006740
:10059000006F0044006F007800200045005A000002
:1005A0000030035A005300410020005400650063EE
:1005B0000068006E006F006C006F0067007900201B
:1005C000004C00610062007300200049006E00636F
:1005D00000000004030904050F3900021C10050087
:1005E000DF60DDD88945C74C9CD2659D9E648A9F9B
:1005F00000000306B20045001810050038B60834A4
:10060000A909A0478BFDA0768815B66500014200B8
:1006100011241FBECFEFDAE0DEBFCDBF12E0A0E0B5
:10062000B1E0E4E3F2E502C005900D92A031B1071C
:10063000D9F723E0A0E1B2E001C01D92A635B207D0
:10064000E1F70E940C200C94E6280C940000E8EDE1
:10065000F0E080818E7F80831092E2001092DA00B9
:100660001092E100A0EEB0E08C9181608C938081CB
:100670008F77808319BCA7EDB0E08C918E7F8C932F
:1006800080818F7E80831092200308952091E40062
:100690003091E50095E6A9012091EC00822F817050
:1006A00020FF06C08091E80080FF06C080E008952A
:1006B0002091E80022FD1AC080914503882389F02B
:1006C000853089F08091EB0085FD0FC02091E4001A
:1006D0003091E50042175307F9F29150E1F684E0BA
:1006E000089582E0089583E0089581E00895EF92EF
:1006F000FF920F931F93CF937C018B010E944603BF
:10070000C82F882371F08C2FCF911F910F91FF90EC
:10071000EF900895F70181917F018093F1000150DE
:1007200011090115110579F38091E80085FDF2CFDB
:100730008091E8008E778093E8000E94460388232A
:1007400081F3C82FE0CF8091470387FF13C08091CA
:10075000E80082FF06C08091E8008B778093E80074
:1007600004C0809145038111F2CF08958091450323
:100770008823D9F38091E80080FFF8CF8091E800CA
:100780008E77ECCF982F9093E900242F762F50E0AE
:10079000891731F07091EC002091ED005091F0003C
:1007A00021FD07C09F5F973071F78093E90081E0DA
:1007B00008953091EB003E7F3093EB003091ED00D7
:1007C0003D7F3093ED003091EB0031603093EB00D2
:1007D0007093EC002093ED005093F0002091EE0018
:1007E00027FDE0CF80E00895CF92DF92EF92FF9255
:1007F0000F931F93CF93DF93C8EDD0E088818F7E56
:100800008883E7EDF0E080818160808384E082BFAF
:1008100081E08093200388818E7F888302EE10E040
:10082000F80110821092DA0081EEC82ED12CF60168
:10083000108288818F778883888180688883888107
:100840008F7D888319BC1092450310924603109245
:1008500044031092430390EEE92EF12CF7018081BE
:100860008B7F808388818160888342E060E080E0C4
:100870000E94C203F60180818E7F8083F80180810F
:1008800081608083808188608083F70180818E7F92
:100890008083888180618883DF91CF911F910F9140
:1008A000FF90EF90DF90CF900895FC0180914D0371
:1008B00090914E0386179707A0F06115710529F4F2
:1008C0008091E8008E778093E80090E061157105D3
:1008D00051F4911108C08091E80082FF35C080E09A
:1008E0000895BC01F2CF809145038823C9F185307A
:1008F000C9F18091E80083FD31C08091E80082FD5C
:10090000EACF8091E80080FFE1CF8091F300209151
:10091000F200382F6115710519F02830310558F0B3
:1009200091E02830310509F090E08091E8008E7761
:100930008093E800CBCF84918093F1003196615091
:1009400071092F5F3F4FE6CF80914503882341F027
:10095000853041F08091E80083FFBDCF81E00895AC
:1009600082E0089583E00895FC0180914D03909109
:100970004E0386179707A0F06115710529F4909131
:10098000E8009E779093E80090E06115710551F4BE
:10099000911108C08091E80082FF34C080E0089582
:1009A000BC01F2CF809145038823C1F18530C1F1AC
:1009B0008091E80083FD30C08091E80082FDEACF9D
:1009C0008091E80080FFE1CF8091F3002091F20058
:1009D000382F6115710519F02830310558F091E074
:1009E0002830310509F090E02091E8002E7720931F
:1009F000E800CBCF81918093F100615071092F5FA6
:100A00003F4FE7CF80914503882341F0853041F087
:100A10008091E80083FFBECF81E0089582E00895D1
:100A200083E00895809122030895209145032430A6
:100A300091F42093E90070E050E040E00E947703D9
:100A4000882321F010921E0310921F038091E8006A
:100A50008E778093E800089590910503803F59F4C4
:100A60008091060387FF0DC01092060391110BC001
:100A70001092010308C0813F81F48091060318168B
:100A80009CF3992381F08091070390910803892BAF
:100A900009F064C01092FE020895823F49F497FF66
:100AA000F0CF10920503809106038111ECCFE0CFC7
:100AB000833F19F41916ACF3E4CF20910703893F63
:100AC00029F41216F4F610920703DBCF8A3F19F4CB
:100AD00027FFD7CFF8CF209108038B3F29F427FFBA
:100AE000D0CF10920803CDCF8C3F19F41216CCF35F
:100AF000C8CF843F31F4809104038E7F8093040338
:100B0000C0CF853F21F4809104038D7FF7CF863FCE
:100B100021F4809104038B7FF1CF873F21F48091F2
:100B20000403877FEBCF883F21F4809104038F7EFD
:100B3000E5CF8D3F31F48091D2028E7F8093D20237
:100B4000A0CF8E3F21F48091D2028D7FF7CF8F3FCF
:100B500009F097CF8091D2028B7FF0CF08958091DA
:100B6000D20280FD1AC081FD14C082FD14C08091A4
:100B7000FE02882391F08C3370F427E0829FC0013D
:100B800011246CE370E00E948324862F672B29F0E8
:100B9000089583E0089587E0089581E008958091A5
:100BA000D20280FD16C081FD16C082FD18C0809162
:100BB0000103882391F08C3390F423E2829FC001DB
:100BC00011246CE370E00E948324862F672B49F088
:100BD000089588E0089581E1089585E0089583E20D
:100BE000089581E00895803F31F40E94CF058195FA
:100BF000809306030895813F19F40E94CF05F8CF32
:100C0000823F31F40E94CF058195809305030895BA
:100C1000833F19F40E94CF05F8CF893F29F40E9441
:100C2000AF058093070308958A3F21F40E94AF0522
:100C30008195F7CF8B3F31F40E94AF05819580936A
:100C4000080308958C3F19F40E94AF05F8CF843F44
:100C500031F4809104038160809304030895853FFB
:100C600021F4809104038260F7CF863F21F48091C4
:100C700004038460F1CF873F21F4809104038860EE
:100C8000EBCF883F21F4809104038061E5CF8D3F55
:100C900031F48091D20281608093D20208958E3F18
:100CA00021F48091D2028260F7CF8F3FB9F7809113
:100CB000D2028460F1CF9C014FB7F8948091CE02AC
:100CC0009091CF02A091D002B091D1024FBF821B70
:100CD000930B0895209115012223C9F02091EB0276
:100CE00027FF15C0E62FE695E695E695EE31D8F498
:100CF000E80FF92FF11D677021E030E001C0220FED
:100D00006A95EAF720958281282322830895FC01C1
:100D1000329608962191621303C0DF0111971C924D
:100D2000E817F907B9F70895209115012223C1F0BA
:100D30002091EB0227FF14C0E62FE695E695E69595
:100D4000EE31F8F4E80FF92FF11D677021E030E083
:100D500001C0220F6A95EAF78281822B828308956F
:100D6000FC0132962FEF30E04191641751F02F3F94
:100D700019F4411101C0232F3F5F3630A9F72F3FEF
:100D800009F40895820F911D27FD9A95FC01628355
:100D90000895CF92DF92EF92FF926C01EE24FF2430
:100DA00020E0C114D104E104F10419F0C701B60137
:100DB00020E1C72ED82EE92EFF24C114D104E1046E
:100DC000F10419F0285FC701B6016B017C0154E002
:100DD000F694E794D794C7945A95D1F7C114D104E7
:100DE000E104F10419F02C5FC701B6016B017C012D
:100DF00042E0F694E794D794C7944A95D1F7C1148A
:100E0000D104E104F10419F02E5FC701B6019695F3
:100E1000879577956795672B682B692B09F02F5F6E
:100E2000822FFF90EF90DF90CF9008958091C902BC
:100E300081111092C902089580959091C80298235B
:100E40009093C80208958091C7029091C802892B9F
:100E50009091C602892B809310029091C902992328
:100E6000A1F0892B8093100280911501882341F114
:100E70008091EB0287FF24C08EE1E2E1F2E090E096
:100E8000815000F591110E941607E091ED02F0915A
:100E9000EE023097E1F080911501882359F080919E
:100EA000EB0287FF07C0809110028093110285E05A
:100EB000809310020280F381E02D80E192E009949A
:100EC00086E0DBCF21912223D9F29F5FD9CF08950D
:100ED000E92FEE0FE90FEE0F8E0F982F9770869582
:100EE0008695869525E0829FF0011124E257FD4FFB
:100EF00050E040E080E0219130E0092E02C03695BC
:100F000027950A94E2F721703327042E01C0220F9F
:100F10000A94EAF7822B4F5F5F4F4530510559F72E
:100F20000895E92FEE0FE90FEE0F8E0F982F9770AF
:100F300041E001C0440F9A95EAF78695869586951B
:100F400095E0899FF0011124E257FD4F30E020E049
:100F500070E05191DF011197CB01022E02C09695EE
:100F600087950A94E2F781708195852784238527E8
:100F70008C932F5F3F4F2530310559F708958091AD
:100F80008D0290915C02981301C008958F5F877065
:100F9000FACF882321F00E941C070C9423070895A0
:100FA000882339F09091C802982B9093C8020C9432
:100FB00023070895882341F080959091C7028923E3
:100FC0008093C7020C9423070895882339F09091E9
:100FD000C702982B9093C7020C9423070895209181
:100FE0003C0230913D022817390771F090933D0281
:100FF00080933C02E091ED02F091EE02309721F0F7
:101000000084F185E02D0994089520913A023091F1
:101010003B022817390771F090933B0280933A0204
:10102000E091ED02F091EE02309721F00680F78119
:10103000E02D09940895E091ED02F091EE023097D1
:1010400021F00190F081E02D099480E008959091C5
:10105000EB0292FF06C0282F28712830F9F4877F11
:10106000846093FF06C0282F28712831F1F4877E11
:1010700084612091EC0220FF06C0382F387138308F
:10108000D9F4877F816021FF06C0282F287128317D
:10109000D1F4877E816194FD877E0895282F247185
:1010A0002430F9F68B7F8860DCCF282F247124311F
:1010B00001F78B7E8861DDCF382F3171313019F720
:1010C0008E7F8860E0CF282F2171213121F78E7E1D
:1010D0008861E1CFCF93DF93972F70E026E0929F56
:1010E000600D711D1124FB0134E5839FE00DF11D9E
:1010F0001124EE0FFF1FEA5BFD4FC591D491CE0185
:10110000C238D105B9F1E8F5C133D10509F499C068
:1011100050F5C932D10509F48DC0CA32D10509F4A0
:1011200097C0C11542E5D40708F0C4C0C11521E538
:10113000D20708F038C1C83ED10508F09DC0C03EB6
:10114000D10568F5C83AD10508F089C0C53AD1057E
:1011500008F005C1C130D10511F1209709F443C051
:101160002497E8F440C0C533D10509F45CC0C93305
:10117000D105B9F62091EB02237089F080EE90E062
:101180000EC0C33ED10591F168F4C03ED105F9F01F
:10119000C23ED10531F62091EB0222FD20C0DF9145
:1011A000CF910895C63ED10561F1C73ED10581F1C9
:1011B000C43ED10509F0B5CF2091EC0221FFEFCF5D
:1011C0008091EB0284FD0FC087EE90E0E8CF209184
:1011D000EB0220FD19C13091EC0230FFE0CF83EE2D
:1011E00090E024FFDCCF90E080E0D9CF2091EB02AB
:1011F00022FD0DC13091EC0230FDC0CF24FFCFCFD6
:10120000F2CF2091EB0223FFCACF24FDECCFDCCF3D
:101210002091EB0223FDFEC03091EC0231FFEECFB6
:1012200084EE90E0BCCF2091EB0225FFB8CF89E29D
:1012300090E0B5CF2091EB0225FFB1CF85E390E0A0
:10124000AECF2091EB0226FFAACF8AE290E0A7CF93
:101250002091EB0226FFA3CF81E390E0A0CFCF3B0C
:10126000D10508F6C85AD0E0CC0FDD1FCE52DE4FB4
:1012700088819981946493CFC11530E2D30760F4DB
:10128000C11541E0D40708F08ACFCE019065C03F78
:10129000D10508F084CFA7CFC11580E4D80708F4A2
:1012A000A2CFC11590E5D90708F061C0CE019F70AB
:1012B000906A75CFC11526E5D20718F5C11535E539
:1012C000D30708F086C0C11544E5D40708F07CC0F8
:1012D0009C2F96959695AE0143705527C115D34521
:1012E00008F466C021E030E002C0220F331F4A95A7
:1012F000E2F740E2949FC0011124822B932B9A685D
:101300004ECFC1159AE5D90778F4C11529E5D20762
:1013100008F069C0C11538E5D30708F464CF9C2FE5
:101320008827806F906A3BCFC1154BE5D40708F43E
:101330005ACFC1158CE5D80708F462C0CE0190568B
:101340008115904208F04FCF8D2F8F710E94270892
:1013500090E0982F882788279F718C2B42C0C55A10
:10136000D0E0C153DE4F888190E0906418CF9E0199
:10137000E4E036952795EA95E1F723708C2F869562
:101380008695837030E2839FC0011124922BC37035
:1013900021E030E002C0220F331FCA95E2F7822B12
:1013A000932B9C68FCCE9C2F8827816F906AF7CE88
:1013B00021E030E002C0220F331F4A95E2F740E2FD
:1013C000949FC0011124EBCF9C2F8827846F906AD3
:1013D000E6CE8C2F0E94270890E0982F8827882738
:1013E0009F719062DCCE8C2F8F700E94270834E0B2
:1013F000D695C7953A95E1F7CF709C2F9069CFCEDF
:10140000CE0199279066CBCE89E390E0C8CE82EEDC
:1014100090E0C5CE86EE90E0C2CEBF92CF92DF9232
:10142000EF92FF920F931F93CF93DF938C01C090A5
:101430001903D0901A03E0901B03F0901C038091D5
:10144000CA029091CB02A091CC02B091CD02C82AE1
:10145000D92AEA2AFB2ACFE1D0E0BC2ED701C60167
:101460000C2E04C0B695A795979587950A94D2F748
:1014700080FD0EC0219788F7B12C8B2DDF91CF9185
:101480001F910F91FF90EF90DF90CF90BF90089544
:10149000B8018C2F0E946A08019761F3EECFCF93B9
:1014A000DF93EC010E940D0ABE01DF91CF910C94F5
:1014B0006A080E944F0A292F2F7092959F709250B0
:1014C0009E3078F4E92FF0E0E851F74D0C94972422
:1014D000803F19F020F4883E20F481E00895843F95
:1014E000E1F380E00895883EC0F3813FD1F7F5CF66
:1014F000822F8695869586950895CF93DF939C01DC
:101500003A9521153F4168F5EC01CC27D170DC01FB
:10151000AA27B270AC01442754709C01222738706E
:1015200094FF11C080E1CD2B09F480E0AB2B09F0D2
:101530008062452B09F08064232B09F08068FB0151
:10154000DF91CF91099481E0CD2B09F480E0AB2BA2
:1015500009F08260452B09F08460232B81F38860B9
:10156000EECFDF91CF91089527982F980895269870
:101570002E98089525982D98089556985E98089568
:10158000279A2F9A0895269A2E9A0895259A2D9A89
:101590000895CF92DF92EF92FF92CF936B017C017F
:1015A0000E94C906C82F0E94BD0A0E94BA0A0E9462
:1015B000B70A0E94B40AC150C73040F4EC2FF0E0E3
:1015C000EA50F74D0C9497240E94C60AC701B60151
:1015D000CF91FF90EF90DF90CF9008950E94C60AC0
:1015E0000E94C30AF3CF0E94C60A0E94C00AEECF2F
:1015F0000E94C60A0E94C30AF8CF20982898219812
:10160000299822982A9823982B9852985A98539858
:101610005B983E98469808958098889A8198899A10
:1016200084988C9A85988D9A86988E9A87988F9AA6
:101630000895CF93DF9300D00F92CDB7DEB790918E
:101640004503943019F589837B836A8383E0809313
:10165000E9008FEF9091E800815095FD06C095ED6F
:101660009A95F1F700008111F5CF8091E80085FF90
:101670000DC050E040E063E070E0CE0101960E94B2
:1016800077038091E8008E778093E8000F900F90A9
:101690000F90DF91CF910895BC0184E00C94190B59
:1016A000BC0183E00C94190B9C0182E08093E9005B
:1016B0009FEF8091E800915085FD06C085ED8A95E9
:1016C000F1F700009111F5CF8091E80085FF0CC083
:1016D00050E040E065E070E0C9010E94770380912E
:1016E000E8008E778093E8000895CF93DF93EC01B4
:1016F000809115018823B1F18091EB0287FF32C000
:1017000060E283E08093E9008FEF9091E8008150E0
:1017100095FD06C095ED9A95F1F700008111F5CF82
:101720008091E80085FF1BC08091150170E050E0BA
:1017300040E0811104C050E040E068E070E0CE017C
:101740000E9477038091E8008E778093E80080E222
:10175000FE01A3E2B3E001900D928A95E1F7DF91DB
:10176000CF91089568E081E0CDCFEF92FF920F9383
:101770001F93CF93DF930E94BD0A0E94BA0A0E9472
:10178000B70A0E94B40A88E8E82EF12C8FEF90E0A7
:10179000F701918380830AE810E0F8019183808348
:1017A000CCE8D0E0998388830E94C60AFFEF20E747
:1017B00082E0F15020408040E1F700C000000E942C
:1017C000C30A9FEFE0E7F2E09150E040F040E1F71C
:1017D00000C000000E94C00A2FEF80E792E0215075
:1017E00080409040E1F700C000000E94BA0AEFEF8D
:1017F000F0E722E0E150F0402040E1F700C00000B7
:101800000E94B70A8FEF90E7E2E081509040E040FD
:10181000E1F700C000000E94B40A8091D9028770ED
:10182000FFEF8F9FC001112495958795959587951A
:101830009927F70191838083F801918380839983AD
:1018400088830E94BD0A0E94BA0A0E94B70ADF91EB
:10185000CF911F910F91FF90EF900C94B40ACF930A
:1018600084E090E00E94D424C82F81E290E00E949E
:10187000D424982F8C2FCF9108956FEE7EEF90E0B7
:1018800080E00E94062560E082E090E00E94E8246B
:1018900060E083E090E00E94E8241092CA02109277
:1018A000CB021092CC021092CD0260E084E090E076
:1018B0000E94E82460E081E290E00E94E82460E079
:1018C00085E090E00E94E82460E086E090E00E94DD
:1018D000E8246FEF87E090E00E94E82440E050E0C9
:1018E000BA0188E090E00E94FA2460E08DE090E088
:1018F0000E94E82440E050E0BA0188E190E00E94B4
:10190000FA2460E087E190E00E94E82440E050E0A3
:10191000BA018CE190E00E94FA2460E080E290E05D
:101920000E94E82440E050E0BA0188E190E00E9483
:10193000FA241092D9021092DA021092DB0210926D
:10194000DC0284E080618093D9024091D9025091F9
:10195000DA026091DB027091DC028FE090E00E947D
:10196000FA2440E050E0BA0183E190E00C94FA24BC
:10197000CF93C82F873070F58091090190910A01AB
:10198000892B89F564E670E080E40E94BC23909383
:101990000A0180930901892BD1F464E670E082E1A9
:1019A0000E94182490930A0180930901892B79F4ED
:1019B00081E090E001C0880FCA95EAF764E670E024
:1019C00080950E94182490930A0180930901CF9179
:1019D0000C946B248A30B9F040F4883071F089306F
:1019E00079F0209A2898CF9108958C3091F070F07A
:1019F0008D30B9F73E9A4698F6CF219A2998F3CFC1
:101A0000229A2A98F0CF239A2B98EDCF529A5A987F
:101A1000EACF539A5B98E7CF80E290E090930A0177
:101A2000809309018091300281110EC00E94B6237B
:101A300081E0809330022FEF83ED90E321508040CE
:101A40009040E1F700C0000064E670E080E40E948E
:101A5000BC2390930A0180930901892B09F04EC0A1
:101A600064E670E080E00E94182490930A0180935D
:101A70000901892B09F042C064E670E080E00E9411
:101A8000182490930A0180930901892BB9F564E623
:101A900070E08FE30E94182490930A01809309015B
:101AA000892B61F50E946B2464E670E080E40E945B
:101AB000BC2390930A0180930901892BF9F464E611
:101AC00070E08CE00E94182490930A018093090131
:101AD000892BA1F464E670E080E00E9418249093C2
:101AE0000A0180930901892B49F464E670E08FE3D1
:101AF0000E94182490930A01809309010E946B248C
:101B0000809109010895CF93873050F580910901A4
:101B100090910A01C0E0892B71F464E670E081E4E1
:101B20000E94BC2390930A0180930901892B31F014
:101B3000C0E00E946B248C2FCF91089584E690E042
:101B40000E94472497FF05C090930A0180930901E2
:101B5000EFCFC82FC09510920A0110920901E9CF6A
:101B6000CFB18FB1869586958C73C3708C2BC82F9F
:101B7000C095E1CF1F920F920FB60F9211242F93B1
:101B80003F934F935F936F937F938F939F93AF9305
:101B9000BF93EF93FF938091E10082FF09C0809192
:101BA000E20082FF05C08091E1008B7F8093E1001D
:101BB0008091DA0080FF24C08091D80080FF20C08F
:101BC0008091DA008E7F8093DA008091D90080FFC7
:101BD0009BC080E189BD82E189BD09B400FEFDCFD3
:101BE00081E08093450380912003811109C00E9408
:101BF00027030E94F4038091E20084608093E20056
:101C00008091E10080FF17C08091E20080FF13C047
:101C10008091E2008E7F8093E2008091E2008061FB
:101C20008093E2008091D80080628093D80019BC34
:101C300085E0809345038091E10084FF29C0809175
:101C4000E20084FF25C080E189BD82E189BD89B5BC
:101C5000982F917080FFFBCF8091D8008F7D80936B
:101C6000D8008091E1008F7E8093E1008091E200B6
:101C70008F7E8093E2008091E20081608093E20099
:101C800080914603882309F445C084E0809345038E
:101C90008091E10083FF27C08091E20083FF23C091
:101CA0008091E100877F8093E10082E0809345038B
:101CB000109246038091E1008E7F8093E100809135
:101CC000E2008E7F8093E2008091E2008061809349
:101CD000E20042E060E080E00E94C2038091F000F8
:101CE00088608093F000FF91EF91BF91AF919F9139
:101CF0008F917F916F915F914F913F912F910F90B5
:101D00000FBE0F901F90189519BC109245031092AA
:101D1000200376CF8091E30087FD93E09093450305
:101D2000B7CF78941F921FB61F9211248F939F9361
:101D3000AF93BF938091CE029091CF02A091D00239
:101D4000B091D1020196A11DB11D8093CE02909356
:101D5000CF02A093D002B093D102BF91AF919F91D7
:101D60008F911F901FBE1F9018952FB7F8948091E8
:101D7000CE029091CF02A091D002B091D1022FBF9C
:101D800008950E94B50E9C01909105038091060371
:101D9000982B21F0309303032093020390910703C3
:101DA00080910803982B21F0309300032093FF02C9
:101DB000E091ED02F091EE02309731F00480F58170
:101DC000E02D84E093E0099408951092C8021092E7
:101DD000C6020E94230785E0E4E0F3E0DF011D92E4
:101DE0008A95E9F7109201031092FE021092D20236
:101DF0000E94C10E90E080E00E94050890E080E023
:101E00000C94EF07CF92DF92EF92FF92CF93DF9384
:101E100000D000D0CDB7DEB70E94C90A6B017C01AB
:101E200080911D03882321F080911E03811115C02C
:101E3000C0921903D0921A03E0921B03F0921C0384
:101E40000E94E50E0F900F900F900F90DF91CF91B1
:101E5000FF90EF90DF90CF900895198282E08A83FF
:101E6000C701B6010E94C9068B838EEF8C8364E0A4
:101E7000CE0101960E941505DBCF0F931F9341E021
:101E800050E060E070E004C0440F551F661F771FEC
:101E90008A95D2F7CB01BA0160957095809590959F
:101EA0000091190310911A0320911B0330911C0318
:101EB00060237123822393231F910F910C94020FAF
:101EC0009091C502809589238093C502282F2770A1
:101ED00071F4282F082E000C330B9217130639F0DB
:101EE0008595859585950E943D0F1092C5020895B0
:101EF0000F931F9341E050E060E070E004C0440F96
:101F0000551F661F771F8A95D2F78091190390910C
:101F10001A03A0911B03B0911C038A019B01082B9B
:101F2000192B2A2B3B2BC901B8011F910F910C943F
:101F3000020F6093CA027093CB028093CC029093FD
:101F4000CD020C94E50E1092C70280911501E2E1DA
:101F5000F2E0882359F08091EB0287FF07C08EE101
:101F6000DF011D928A95E9F70C94E50E86E0F8CF23
:101F70001F93CF93DF93CDB7DEB7AA970FB6F89430
:101F8000DEBF0FBECDBF87E493E02091F100FC01DE
:101F90002193CF01F3E08F349F07B9F78091480375
:101FA000893009F444C018F5823009F4B9C083308F
:101FB00009F46EC0813031F580914703813A11F503
:101FC0008091E800877F8093E80080914B03909197
:101FD0004C03892B41F560E283E293E070E00E94BC
:101FE000B4048091E8008B778093E8000BC08B30BD
:101FF00009F46BC008F483C0823409F4A2C08534AC
:1020000009F4BCC08091E80083FF50C2809147036F
:10201000909148039A3008F049C2E92FF0E0E3506C
:10202000F74D0C94972460E090E080E0D7CF80914A
:102030004703813239F780914B0390914C0300970D
:1020400011F00297F9F68091E800877F8093E8000D
:102050008091E80082FF17C09091F3008091F20018
:10206000029729F48091F1008B7F813021F48091D7
:10207000F100809322038091E8008B778093E80041
:102080000E94A303BFCF809145038111E1CFBACF56
:1020900080914703813A09F0B5CF80914B0390912D
:1020A0004C03892B09F0AECF8091E800877F8093A5
:1020B000E8008091E80080FFFCCF809115018093BB
:1020C000F1008091E8008E77D9CF8091470381326B
:1020D00009F098CF80914B0390914C03892B09F024
:1020E00091CF8091E800877F8093E8000E94A3034E
:1020F00080914903809315010E94A30F83CF8091A3
:102100004703813209F07ECF8091E800877F80937A
:10211000E8000E94A30380914A038093210372CFB9
:1021200080914703813A09F06DCF8091E800877F65
:102130008093E8008091E80080FFFCCF809121032C
:10214000BECF80914703803C09F05CCF80914B0368
:1021500090914C03029739F58091490390914A037D
:10216000892B09F58091E800877F8093E8006BE177
:1021700070E080EF94E00E94550482CF8091470385
:10218000803C09F03FCF80914B0390914C0307971F
:1021900051F48091E800877F8093E80062EB70E063
:1021A0008EE394E0E8CF8091EB0080628093EB00B7
:1021B00029CF803899F0823809F078C180914B039B
:1021C0008F70873008F072C18093E9008091EB0036
:1021D00085FB882780F91092E90006C080914303AF
:1021E00090914403911182609091E800977F9093C1
:1021F000E8008093F1001092F1008091E8008E7762
:1022000051C1882309F43FC1823009F04FC1809148
:102210004903811142C180914B038F702FEF280F2A
:10222000263008F043C18093E9002091EB0020FFA5
:1022300034C1933031F48091EB0080628093EB00E5
:102240002CC19091EB0090619093EB0021E030E085
:1022500001C0220F8A95EAF72093EA001092EA0063
:102260008091EB008860EACF811120C11091490371
:102270001F778091E3008078812B8093E300809129
:10228000E800877F8093E8000E94A3038091E80024
:1022900080FFFCCF8091E30080688093E30082E0C0
:1022A000111183E08093450301C18058823008F00A
:1022B000FDC08091490390914A038C3D23E0920731
:1022C000A1F583E08A838AE289834FB7F894DE011F
:1022D000139620E03EE051E2E32FF0E050935700E8
:1022E000E49120FF03C0E295EF703F5FEF708E2F07
:1022F00090E0EA30C0F0C7968D939D932F5F243114
:1023000059F74FBF8091E800877F8093E8006AE229
:1023100070E0CE0101960E94B4048091E8008B77B2
:102320008093E800C3C0C096E7CF20914B03309163
:102330004C03492F55274330510551F1A0F441304A
:10234000510509F459C06BE670E08CE095E042302D
:10235000510509F0ABC02091E800277F2093E800E9
:102360000E945504DACF4132510539F1423251050C
:1023700091F14F30510509F099C0E9EDF5E0649114
:1023800070E087ED95E06115710509F48FC0E3CF2A
:1023900099278130910571F0009731F0029709F08B
:1023A00085C0E9E8F5E002C0E3EDF5E0649170E096
:1023B000CF01E9CFE1EAF5E0F9CF2330310508F0AC
:1023C00075C0220F331FF901E75FFD4F80819181B6
:1023D00069E070E0C0CF2330310508F067C0F90133
:1023E000EE0FFF1FED5FFD4F8081918120503E4F2A
:1023F000F901608170E0C7CF62E170E087E795E0A6
:10240000AACF803809F052C08091E800877F80937E
:10241000E800809146038093F100EFCE811146C021
:1024200010914903123008F041C08091E800877F85
:102430008093E800109346030E94A303112311F038
:1024400084E005C08091E30087FDFACF81E08093AE
:10245000450342E061EC81E00E94C20342E061EC8E
:1024600082E00E94C20342E261EC83E00E94C20368
:1024700042E361EC84E00E94C20342E360EC85E049
:102480000E94C20313C080914903813079F481E036
:10249000933009F080E0809344031092E90080912A
:1024A000E800877F8093E8000E94A3038091E80002
:1024B00083FF0AC08091E800877F8093E8008091C5
:1024C000EB0080628093EB00AA960FB6F894DEBF13
:1024D0000FBECDBFDF91CF911F9108951F920F9234
:1024E0000FB60F9211242F933F934F935F936F93E7
:1024F0007F938F939F93AF93BF93CF93DF93EF938C
:10250000FF93D091E900DF708091EC00C82FC1707B
:1025100080FDC0E81092E9008091F000877F8093F1
:10252000F00078940E94B80F1092E9008091F000BA
:1025300088608093F000CD2BCF70C093E900FF91AD
:10254000EF91DF91CF91BF91AF919F918F917F914B
:102550006F915F914F913F912F910F900FBE0F9010
:102560001F9018958823B1F19CEF980F913A38F499
:10257000682F80E192E00E946A060C94230790E2A3
:10258000980F983088F4877021E030E0A90102C0EC
:10259000440F551F8A95E2F7CA0180959091C702B2
:1025A00089238093C702E9CF9BE5980F933020F4ED
:1025B00090E080E00C94050898E5980F973120F49E
:1025C00090E080E00C94EF07803F20F00E942C0503
:1025D0000C94C10E0895CF93DF93EC010E94B212C8
:1025E000CE01805E9109089720F069EC77E0209792
:1025F00011F46AED77E0CE01DF91CF910C947D0A62
:10260000CF93C82F882309F46EC08CEF8C0F813ACA
:10261000B8F580911501882311F18091EB0287FFB5
:102620001EC0EC2FE695E695E695F0E0E05FFD4FE5
:10263000828190E04C2F477021E030E002C0220FF1
:10264000331F4A95E2F782239323892B89F06C2F5D
:1026500080E192E00E946A060E94230709C0E2E13D
:10266000F2E08191C81799F382E0E831F807C9F7E1
:102670006C2F80E192E00E949406CF910C94230786
:1026800080E28C0F883068F4C77021E030E001C030
:10269000220FCA95EAF78091C702822B8093C70266
:1026A000ECCFEBE5EC0FE33040F4F0E0E153FE4F0C
:1026B000808190E0CF910C940508E8E5EC0FE731BC
:1026C00050F4F0E0EE0FFF1FEE52FE4F808191813B
:1026D000CF910C94EF07C03F30F08C2F0E94F30590
:1026E000CF910C94C10ECF910895CF93C82F0E9423
:1026F0000013C93349F42FEF87EE93E02150804057
:102700009040E1F700C000008C2FCF910C94B212E2
:102710000F931F93CF93DF93C62FD42F022FFC016B
:1027200082818823A1F0609351030E94B50E90939B
:10273000500380934F03C77081E001C0880FCA9592
:10274000EAF7DF91CF911F910F910C94E5078091EB
:102750005103681335C080914F03909150030E943C
:102760005B06883C910560F510E21D0FCD17B9F0AE
:1027700080E28C0F883040F4C77081E001C0880F80
:10278000CA95EAF70E94DA07183048F481E09D2FD5
:10279000977001C0880F9A95EAF70E94E507802F8D
:1027A0000E947513183098F4D77081E001C0880F2B
:1027B000DA95EAF7DF91CF911F910F910C94DA0728
:1027C000C77081E001C0880FCA95EAF7F3CFDF91A7
:1027D000CF911F910F9108950F931F93CF93DF9384
:1027E0008C01EB018091080182FF2DC08B7F8093CB
:1027F00008018091500220914E0230914F02AB01AE
:10280000421B530B209106013091070142175307D9
:1028100078F40E940013809108018D7F8093080155
:10282000809150020E94B21282E00E941C0715C0E3
:102830009091C80292609093C8020E940013809108
:1028400008018260EBCF802F0E94B212809150026B
:10285000909151020817190739F30E942307D0936A
:102860004F02C0934E02DF91CF911F910F910895B7
:10287000CF93DF93EC01805E9109089720F060ED23
:1028800077E0209711F465EE77E0CE010E947D0A93
:102890008C2FDF91CF910C9400132F923F924F9287
:1028A0005F926F927F928F929F92AF92BF92CF92E0
:1028B000DF92EF92FF920F931F93CF93DF93CDB7E9
:1028C000DEB728970FB6F894DEBF0FBECDBF7C01F0
:1028D000FC0183819481892B39F01081D180812F73
:1028E0008D218F3F09F05CC728960FB6F894DEBFA4
:1028F0000FBECDBFDF91CF911F910F91FF90EF9051
:10290000DF90CF90BF90AF909F908F907F906F900F
:102910005F904F903F902F9008950E940D0A082FCE
:10292000682F89819A810E949107E12FF0E026E0CB
:10293000D29EE00DF11D112434E5039FE00DF11D41
:102940001124EE0FFF1FEA5BFD4F0591149180915A
:102950001D03882321F080911E0381110EC70A32C6
:10296000FDE51F07F1F5F7018281882309F44DC0C9
:102970008091D90291E0980F9770887F953008F484
:10298000892B8093D9028091D9028770FFEF8F9FA6
:10299000C0011124959587959595879599279093D2
:1029A00089008093880090938B0080938A00909395
:1029B0008D0080938C004091D9025091DA02609191
:1029C000DB027091DC028FE090E00E94FA246091BB
:1029D000190370911A0380911B0390911C030E94AC
:1029E000C90AF7018281882309F463C09801225E35
:1029F0003C452530310508F05CC06EE1600F609306
:102A0000D5028CE090E00E94E8240E94B50E6C0193
:102A1000F70182818823E9F08091080182FF05C0D7
:102A2000B60190E080E00E94EC1382E00E941C0757
:102A30000931FCE51F0709F452C108F0D6C007317F
:102A40003CE5130709F43BC108318CE5180709F48C
:102A500040C1C80104974A9708F0ECC1F701828190
:102A6000882309F4E2C18091080180FFDDC09091C4
:102A7000C7029111D9C01093510200935002D09215
:102A80004F02C0924E0284608093080182E00E944F
:102A9000600F8091C502877009F426CFF70182810B
:102AA000882309F421CF82E00E94600F1DCF81E1CD
:102AB0006AC617FFAACF882309F4A7CFE091ED02D9
:102AC000F091EE0280E0309721F00190F081E02D4E
:102AD00009958695817080934D029091D502913031
:102AE00029F4882319F089E30E9475138091C702A5
:102AF00080934C021092C7028091D502813009F474
:102B00004AC0882309F443C0823009F44DC08430A0
:102B100009F451C08FE39CE90197F1F700C0000070
:102B20003801E89477F8ACE0AA2EB12CC3010A2C46
:102B300002C0969587950A94E2F78F70F7E2CF2E40
:102B4000D12C882339F0C82ED12C8A30C8F59DE1CC
:102B5000C90ED11CC6010E943814C6010E94EB1296
:102B6000F4E0AF1AB1082CEFA2162FEFB206F1F67F
:102B70008091D502813061F1882331F1823021F1D9
:102B8000843089F180914C028093C7023ECF82EE5F
:102B90000E940013BFCF88E193E00E94381488E1BF
:102BA00093E00E94EB12B6CF82EE0E94001387E5FD
:102BB0000E947513AFCF86EE0E94751388E1F8CF9F
:102BC000E6E0CE1AD108C6CF82EE0E94B212DACF6A
:102BD0008CE20E94751380914D02882399F289E35B
:102BE0000E947513CFCF88E2FBCF0B319CE519070C
:102BF000B1F070F0809108018E7F0C31FCE51F0769
:102C000009F027CF8093080182E00E941C070CC0C6
:102C100090910801892F8E7F90FF8160F3CF809182
:102C20000801816080930801F7018281882309F4FB
:102C3000E2C5109251030230FCE51F0708F4C4C539
:102C400006312CE5120738F098012B5F3C45273000
:102C5000310508F0B9C50E942F0C9093EC028093C7
:102C6000EB020F303CE5130709F4D9C108F053C15A
:102C700008309CE5190709F4BCC108F028C10430EC
:102C8000FCE51F0709F4A9C108F00EC102303CE5BC
:102C9000130709F49AC103301C4509F49AC16091E5
:102CA000EB021091EC0284E090E00E94E824612F96
:102CB00081E290E00E94E8240E94A30FEACE809176
:102CC00006019091070105969093070180930601F4
:102CD000ABCF80910601909107010597F5CF8091C8
:102CE00007018F93809106018F9386E191E09F9376
:102CF0008F931F9288E08F939F928F920E94472616
:102D00000FB6F894DEBF0FBECDBF6401EAE04E2ED1
:102D1000F6012081222309F487CF213009F046C033
:102D200091818281913049F4F2E0CF0ED11C0E9452
:102D300075132FEFC21AD20AEBCF923031F422E092
:102D4000C20ED11C0E940013F4CF933031F432E054
:102D5000C30ED11C0E94B212ECCF943021F08FEF41
:102D6000C81AD80AE6CF92E0C90ED11C30E020E0A4
:102D7000A6014F5F5F4F8053990B8A30910550F049
:102D800021503109B0F28FE99FE00197F1F700C0BF
:102D90000000F6CF429EB001439E700D11249C01AD
:102DA000260F371FF60181816A01E2CFE22FF0E0A2
:102DB000EA53FE4F5490822F86958695869590E033
:102DC000FC01EA54FE4F64902770712C022E02C061
:102DD000759467940A94E2F7E1E06E227724FC018F
:102DE000EA55FE4FA490B12C02C0B594A7942A9541
:102DF000E2F7F1E0AF22BB246114710419F081EE17
:102E00000E940013A114B10419F086EE0E94001371
:102E1000852D0E947513AB2819F086EE0E94B21220
:102E2000672809F486CF81EE95CFB601C8010E94CC
:102E3000EC132FCE043FFCE51F0739F1A0F4093D48
:102E40003CE51307F1F00A3D8CE5180751F1083D08
:102E50009CE5190709F0E8CE26E241EE61EEC701D4
:102E60000E94881316CE063FECE51E07B1F088F0ED
:102E7000073F2CE5120709F0D7CE27E245EE66EEB4
:102E8000EECF27E245EE65EEEACF26E241EE60EEB8
:102E9000E6CF27E245EE64EEE2CF26E241EE62EEB7
:102EA000DECF28E241E0EFCF8091EB028061063077
:102EB0009CE5190709F447C08091EB028860073050
:102EC0001C4508F440C08091EB0280623CC00B308E
:102ED000FCE51F0709F49BC068F409303CE51307C3
:102EE00009F48BC00A301C4509F0D9CE8091EB0261
:102EF0008C6029C08091EB028B7F0D309CE5190717
:102F000011F18091EB028D7F0E301C45E0F0809135
:102F1000EB02877F18C00B3FFCE51F0709F461C077
:102F200060F502313CE5130709F481C078F4003103
:102F30009CE5190709F477C08091EB028F7B013182
:102F40001C4509F0ACCE8093EB02A9CE0431FCE520
:102F50001F0709F47AC008F470C005311C4509F058
:102F60009ECE8091EB0282FB992790F921E0922777
:102F700090FB82F990FB83F9E6CF0E3F8CE51807B2
:102F800009F449C070F40C3FECE51E0771F1809123
:102F9000EC028E7F0D3F1C4509F081CE8093EC0240
:102FA0007ECE01152DE5120709F44BC060F101300A
:102FB0001D4509F074CE8091EC02982F9095917088
:102FC0008E7F892B90FB81F9E9CF8091EB028160A4
:102FD000BACF8091EB028260B6CF8091EB02846021
:102FE000B2CF8091EC028160D9CF8091EC028260F7
:102FF000D5CF8091EB028064A6CF0E94A30F809171
:10300000EB028068A0CF8091EC028360C7CF8091F3
:10301000EB028E7F98CF8091EC028D7FBFCF8091A5
:10302000EB028F7E90CF8091EB028F7D8CCF0E9440
:10303000A30F8091EB028F7786CF8091EB02837F85
:1030400082CF8091EC028C7FA9CF0E94A30F909138
:10305000EB02892F97FB87F9805875CF882309F4F5
:1030600055C00F3D9CE5190709F446C00930EDE550
:103070001E0709F444C001151C4509F047C00E9411
:10308000A30F2FEF34E38CE0215030408040E1F774
:1030900000C00000F89481E08093E00080E280931B
:1030A000D8001092C900EFE1FEE43197F1F700C0BB
:1030B00000001DBA109268001CBC10BE1FBA10920E
:1030C0007A0010926E0010926F00109271001092B0
:1030D00072001092C9001092BC0014B817B81AB848
:1030E0001DB810BA1092BC0015B818B81BB81EB89D
:1030F00011BA0C94003FCDCC0E943D0CCACC8091FB
:103100001F0391E0892780931F03C3CCF70100813F
:103110001181882309F444C0C8010E940D0AD82EE9
:10312000682FC8010E949107B8018D2D0E946A087E
:10313000082FD92EB82EF701C580C2947FE0C72290
:10314000128111111092C8028091C5028770C1F0DE
:103150001123B1F08D2D807F803449F090E2900FE3
:10316000983070F0803619F4F6EFBF1649F082E01F
:103170000E94600F8091C5028770AA24A3948111D8
:10318000A12C7D2C72945FE075226BE0262E271413
:1031900008F441C0E72DF0E0E95FF64D0C94972468
:1031A000C8010E946807D82EBFCF2D2D2F70C22EC8
:1031B0008D2D807F19F0C29440EFC4221123C9F0F5
:1031C000CC2069F080E2800F883010F0B1100BC085
:1031D0008091C702C82AC092C7020E942307802F8D
:1031E0000E94001318C08091C802C82AC092C80269
:1031F000F4CF802F0E94B212CC2069F0005E08301C
:1032000010F0B11057C0C0948091C702C822C0927C
:10321000C7020E942307272D2850330B2430310585
:1032200010F40E941B08112379F08D2D807F8036C9
:1032300019F436EFB31641F080915302823009F051
:1032400094C283E080935302AA20A9F08091C50222
:1032500080FD11C0F70112828595859585950E94A4
:10326000780FC7010E944D148091C5028595859500
:1032700085950E943D0F85E0F701D40101900D92E4
:103280008A95E1F789819A810E9468079A81E9818C
:10329000F0E026E0929FE00DF11D112434E5839FBC
:1032A000E00DF11D1124EE0FFF1FEA5BFD4F85912C
:1032B00094911ACB8C2D0E941C07ABCF3D2D3F70F3
:1032C000632E8D2D807F803219F0629430EF63225F
:1032D000BB2041F081E0B81631F1112381F1CC20FF
:1032E00049F17DCF112391F09091C902862D892B50
:1032F000C11003C00E94E5078ECFE1E0CE12FACFE5
:10330000981709F488CF8093C90285CFC11006C0F1
:103310000E941607862D0E94DA077DCFF1E0CF16B6
:1033200009F479CFF5CF112339F0222423942C14FA
:1033300008F471CF862DDECFC1106DCFEBCFCC203E
:1033400049F329E3322EB31009C02FEF37EE83E0A3
:10335000215030408040E1F700C00000802F0E94E3
:10336000B21259CF8D2D86958695837069F0813084
:1033700009F051CF802F9D2D9370111102C090E064
:1033800080E00E94EF0747CF802F9D2D9370111191
:1033900002C090E080E00E9405083DCF802F1123FD
:1033A00029F00E94F3050E94C10E35CF0E942C0522
:1033B000FACF8D2D837009F067C011112CCF202F0B
:1033C000229526952770220F220F402F4F7050E034
:1033D00070E060E0022E04C0440F551F661F771F87
:1033E0000A94D2F780E090E0DC0104FF0FC08FE088
:1033F00090E0A0E0B0E004C0880F991FAA1FBB1F97
:103400002A95D2F780959095A095B0952D2D26956B
:1034100026952370223029F1D8F42090CA023090EA
:10342000CB024090CC025090CD02213069F0842B29
:10343000952BA62BB72BBC01CD01622173218421D2
:1034400095210E94990FE7CE4229532964297529B5
:103450001A012B01282A392A4A2A5B2AC201B10102
:10346000F0CF842B952BA62BB72B2091CA0230913D
:10347000CB024091CC025091CD02BC01CD0162271C
:10348000732784279527DDCF8695112311F08D2D85
:103490008170882309F4BFCE202F229526952770AE
:1034A000220F220F402F4F7050E070E060E0022E9C
:1034B00004C0440F551F661F771F0A94D2F780E09F
:1034C00090E0DC0104FF0FC08FE090E0A0E0B0E0EE
:1034D00004C0880F991FAA1FBB1F2A95D2F7809599
:1034E0009095A095B0952D2D269526952370223088
:1034F00029F1D8F42090190330901A0340901B034F
:1035000050901C03213069F0842B952BA62BB72BF0
:10351000BC01CD0162217321842195210E94020FFB
:103520007ACE42295329642975291A012B01282AA8
:10353000392A4A2A5B2AC201B101F0CF842B952B8C
:10354000A62BB72B2091190330911A0340911B032E
:1035500050911C03BC01CD01622773278427952756
:10356000DDCF2D2D2F70C22E112329F0822F0E9426
:10357000780F802FBFCE802F0E94DA078C2D0E94FB
:103580003D0F49CE802F32EFB31609F452C03B15E0
:1035900078F090EFB91629F1E1EFBE1609F441C0B9
:1035A000112309F46AC0C1101ACE8D2D8F713EC04F
:1035B000F3EFBF1609F442C094EF292EB210F0CFFA
:1035C000112309F44FC00D2D0F71802F0E94780F29
:1035D00028E0029FC001112483608093C502802FE0
:1035E00025C01123C1F0C11016CE2D2D2F7161E021
:1035F00070E080E090E004C0660F771F881F991F7D
:103600002A95D2F72091190330911A0340911B0398
:1036100050911C03A1CF332433943C1408F4FBCD08
:10362000E4CF8D2D8F71112309F4A9CF0E94780F5B
:10363000F2CD8D2D8F711123C9F3A1CF60E070E021
:10364000CB01112309F46ACF2D2D2F7161E070E0B9
:1036500080E090E004C0660F771F881F991F2A95AD
:10366000D2F75CCF81E00E94600F31E03C1508F09A
:10367000D2CD82E00E94600FCECDCC2059F08933AC
:1036800009F06CCE8FEF97EEE3E081509040E04080
:10369000E1F762CE8D2D8F7172CFE0E1E00FE73060
:1036A00008F03EC0F0E0ED5EF64D0C949724112337
:1036B00009F4B1CD8091550291E08927809355029C
:1036C000AACD10935502A7CD81E08127F7CF111124
:1036D000A2CD81E0F3CF11119ECD109255029BCD6A
:1036E000112321F082E080935302F3CF80915302A3
:1036F000823021F481E0809353028DCD833009F034
:103700008ACD10925302E9CF112339F080915402EF
:10371000882381F2109254027ECDCC2059F27BCDC9
:1037200080915402CC20A9F0882341F08091550269
:1037300091E089278093550210925402802F111135
:103740004FCD0E94B21286E0F70111928A95E9F7F7
:1037500062CD882309F45FCD11115DCD80915502B2
:1037600091E0892780935502D5CF813009F06CCD47
:10377000109253021092550267CDF701828119828F
:10378000811195C982E18A83F70180818B838181D0
:103790008C838EEF8D8365E0C4010E941505DFC820
:1037A00085E09E012F5F3F4F4901D90101900D92A5
:1037B0008A95E1F7F701228189819A812111ADC8AB
:1037C0000E946807082FB1C80631FCE51F0709F001
:1037D00045CC8091C7028A7A91E009F490E09093F9
:1037E000520269E2811165E380E192E00E94940651
:1037F0000E9423074EC906311C4509F087CC8091F1
:10380000520269E2811165E380E192E00E946A065A
:10381000EFCF1F93CF93DF9380915B02807FA9F45A
:1038200080915802882389F080918D02D0915C02AA
:103830006091560270915702A0915902B0915A02BC
:10384000C62FC72316E0D81304C0DF91CF911F9174
:10385000089590E0109711F0CF3F19F4019687700A
:10386000F2CF189F9001199F300D1124F901E35AEE
:10387000FD4F41814713F2CF40814613EFCF428184
:103880004111ECCF438154814A1B5B0B483C5105ED
:1038900028F780915B028F70806180935B02F90151
:1038A000EE59FD4F80818F708061808386E592E0C4
:1038B0000E944D14DF91CF911F910C94BF07AF92DE
:1038C000BF92CF92DF92EF92FF920F931F93CF930D
:1038D000DF93CDB7DEB761970FB6F894DEBF0FBEAA
:1038E000CDBF8C0185E0F801DE011D9601900D929F
:1038F0008A95E1F7F80180819181E28026E5A22E88
:1039000022E0B22E6091590270915A026115710540
:1039100009F43EC13091560240915702232F2423CF
:103920002F3F09F435C1C380D480F0905802F601CE
:10393000E61BF70BFF2009F4FBC020915B02522F1E
:10394000507FE83CF10508F0BBC0511178C0FE2C57
:10395000491321C038131FC0E1101DC02F70206112
:1039600020935B02C5010E944D1480915B02F80117
:1039700085838F2D61960FB6F894DEBF0FBECDBF45
:10398000DF91CF911F910F91FF90EF90DF90CF903B
:10399000BF90AF900895CD2829F0282F29232F3FDD
:1039A00009F022C120E0F22FF170DF2E20FF3DC090
:1039B00020918D0240915C0256E0241315C08D8742
:1039C0009E878D859E850E944F0A292F22952F70F4
:1039D0002230F8F0243020F59F70F9F0F80195813D
:1039E000907FD9F4D12C1FC030E0529FF001539F3B
:1039F000F00D1124E35AFD4F6181961306C06081DA
:103A0000861303C06281E61210C02F5F3F4F2770FC
:103A1000D4CF9F7011F0882329F3805E883010F393
:103A2000C8010E944D14FD2CA4CFEE2009F4A1CFB3
:103A300080915B02816080935B02F12C9ACF4913E5
:103A400012C0381310C0E1100EC0F8012583C80160
:103A50000E944D1486E0F801A6E5B2E001900D92B7
:103A60008A95E1F786CF8D879E878D859E850E94FA
:103A7000590A882309F1EE20F9F080915B02803227
:103A800070F0209156023091570238872F831986A3
:103A9000DB86CA868C87CE0107960E944D1486E08D
:103AA000F801A6E5B2E001900D928A95E1F70E9437
:103AB000091CFF24F3945DCFC8010E944D14F9CF77
:103AC00051110AC086E592E00E944D1486E0F5018E
:103AD00011928A95E9F7B1CF49130FC038130DC081
:103AE000E1100BC0F8012583C8010E944D1486E047
:103AF000F50111928A95E9F73CCF8D879E878D85D8
:103B00009E850E94590A8823B9F2EE20A9F280917D
:103B10005B02803220F220915602309157023A83A4
:103B200029831B82DD82CC828E83CE010196B5CFA4
:103B3000E83CF105E0F6FE2CEE2009F4BDCF491378
:103B400016C0381314C080915B0280FD83CF982F7C
:103B5000907F09F47FCFF8018583903F09F477CFF8
:103B6000982F907F905F8F70892B858370CF8D8782
:103B70009E878D859E850E94590A811190CF8091E4
:103B80005B02816080935B02C8010E944D14F1CEFC
:103B9000EE2009F491CF8D879E878D859E850E94AA
:103BA000590AF82E882309F487CF86E0F801A6E5A4
:103BB000B2E001900D928A95E1F7809156029091C2
:103BC00057020E944F0A92959F70963051F4863F9B
:103BD00041F08091550291E089278093550290939E
:103BE00054020E94091CC5CE21E02E25DCCE1F9375
:103BF000CF93DF93CDB7DEB767970FB6F894DEBFEC
:103C00000FBECDBF6D8B7E8B8F8B8E899F89892B4D
:103C1000E1F0852F84238F3F09F098C05FEF4FEFCD
:103C200014C030915502332309F44EC0E42FF0E064
:103C300036E0539FE00DF11D1124EE0FFF1FE95DEB
:103C4000FE4F40815181822B8C931A8A198A4B8BAB
:103C50005C8B85E0FE017396DE011D9601900D924E
:103C60008A95E1F786E0FE013D96DE011796019008
:103C70000D928A95E1F7CE0107960E945F1C811193
:103C800012C086E0FE013796DE01119601900D927A
:103C90008A95E1F78A859B85892B29F08F81988504
:103CA00089238F3FC9F516E080918D0290915C02C7
:103CB000891320C067960FB6F894DEBF0FBECDBF44
:103CC000DF91CF911F91089580958223BDCF96E01B
:103CD000929FD001939FB00D1124A35ABD4FFE01B6
:103CE000319601900D929A95E1F780935C020E94C3
:103CF000BF07D9CF819FC0011124835A9D4F0E94D5
:103D00005F1C8823B9F280918D0290E00196877044
:103D1000992780938D02C8CF20915C0230E0C901C1
:103D200001968770992740918D024817190679F6F8
:103D30000E94A30F10925C0210928D0286E0E6E5CD
:103D4000F2E0DF011D928A95E9F7ADCF81E090E0C6
:103D5000042E01C0880F0A94EAF7A52FB0E0A25CF8
:103D6000BD4F2C913D8931115CCF322F38235BCF71
:103D70008F929F92BF92CF92DF92EF92FF920F931A
:103D80001F93CF93DF938091090190910A01892BB2
:103D900091F0809131028F5F8093310281110BC0CD
:103DA0000E940C0D90E090930A0180930901892BE9
:103DB00011F40E94B50B2DED822E22E0922E74019B
:103DC00010E000E097E0C92EC00E802F0E94B80CD2
:103DD0008C2D0E94B80C802F0E94830DE7019991D1
:103DE0007E01D12C891729F0FE0131978083DD24D3
:103DF000D3948C2D0E94830DF7019681891709F4C5
:103E00007CC0868381E08D29182B0E94FD0A0F5FFC
:103E10000730C1F60E94B50E6091330270913402F2
:103E200090933402809333022091320230E0261BBB
:103E3000370B820F931F6BEF70E00E946F24E82E08
:103E4000392F082F80933202F0903602FF2009F4B8
:103E5000A5C010923602E091D302F091D402AF01D6
:103E6000425F5F4F20E08BEFB82E6BEF70E0A191C7
:103E7000AB3FA1F0CA2ED12C8E2D932F0A1708F438
:103E80003EC08C199D09092E000CAA0BBB0B4E9746
:103E9000A105B105D0F1DF011197BC924E175F0764
:103EA00031F720933602111102C0211179C010920E
:103EB0003502A091D302B091D40290913602E0EF86
:103EC000F2E04EEF52E080E03191E40129914E01A1
:103ED000321751F03C913B3FD1F40C93BF0161503C
:103EE0007109EB01288391E011964E175F0761F786
:103EF000909336028093350257C080E084CFDB0177
:103F0000AC19BD098A0F9B1FBECF2F2DC7CF81E0F3
:103F1000EBCF9170892B09F473C080913802909196
:103F200039028130984780F010921F036091190385
:103F300070911A0380911B0390911C030E94C90A7F
:103F40001092390210923802809138029091390211
:103F500001969093390280933802812FDF91CF919F
:103F60001F910F91FF90EF90DF90CF90BF909F90A7
:103F70008F9008950E94C30A4AC0892B71F3109252
:103F80003902109238026091190370911A038091DE
:103F90001B0390911C030E94C90ADFCF111187CF28
:103FA00080913502811183CF8091080182FF17C073
:103FB0000E94B50E20914E0230914F02AC01421B7F
:103FC000530B20910601309107014217530738F037
:103FD000BC0180915002909151020E94EC1380919B
:103FE00038029091390220911F03222331F2009769
:103FF00009F08FCF0E94BA0A0E94B70A0E94B40A41
:10400000C0913702CC2309F4B5CF0E94B70A81E0F2
:10401000C827C093370281CFCDB7DEB7C955D109C4
:104020000FB6F894DEBF0FBECDBF84B7877F84BFC5
:104030000FB6F894A8958091600088618093600025
:10404000109260000FBE80E890E00FB6F894809365
:104050006100909361000FBE85B7806885BF85B70A
:10406000806885BF0E9427030E94F4038091E200CC
:1040700084608093E2007894809145038823A1F0C6
:104080001091E9001F709091EC00892F817090FDD4
:1040900080E8182B1092E9008091E80083FD0E94CF
:1040A000B80F1F701093E90082E084BD93E095BDC6
:1040B0009AEF97BD80936E000E940C0D90E0909354
:1040C0000A01809309010E94FD0A0E940C0BEDED8C
:1040D000F2E08BEE92E0A0EFB2E011921D928E170B
:1040E0009F07D9F78EE090E00E941C258093D302B1
:1040F0009093D402FC010E962BEF21938E179F070D
:10410000E1F790E080E00E94E2248F3E9E4F11F0A4
:104110000E943D0C8CE090E00E94D42490E0B0E03E
:10412000A0E08093D5029093D602A093D702B093DB
:10413000D80289EA8093800089E0809381002498E6
:104140002C983F988AB18F7C8AB96E98479A8BB128
:1041500080638BB9769A8FE090E00E94DC246093B4
:10416000D9027093DA028093DB029093DC026770CD
:104170004FEF649FB001112475956795759567950C
:104180007727709389006093880070938B00609309
:104190008A0070938D0060938C000E94B50B90E0B4
:1041A00080E00E94E2248F3E9E4F11F00E943D0C61
:1041B00082E090E00E94D42480930A030E942F0C96
:1041C0009093EC028093EB0283E090E00E94D42471
:1041D000682F70E090E080E00E94990F60911903D1
:1041E00070911A0380911B0390911C030E94C90ACD
:1041F0008BE091E09093EE028093ED0228E1E22EB5
:10420000F12C80EF92E03EE0B32EB80E41E4C42ED4
:10421000D12CCC0EDD1EF2E0CF0ED11C80914503D7
:1042200090E4A92E00E112E1853009F492C10E94C8
:10423000B81EEBE0F3E0A0EFB2E010E000E0302FBA
:104240008D912191281709F493C190E0AA24A39499
:104250002827422F4A2109F486C161969FAF6197B2
:1042600062963FAF62978A2191E009F490E06396ED
:104270009FAF63970E94B50E8160782F65969FAFC0
:104280008EAF659761964FAD619762965FAD62970D
:1042900063966FAD639765968FAD65970E94F71D26
:1042A000F801E55FFC4F8081A826A08285E0E4E06C
:1042B000F3E0DE01119601900D928A95E1F7A0904E
:1042C00005039090060310910703009108031092D4
:1042D00005031092060310920703109208038A2D1B
:1042E000892909F448C080910203909103030E9438
:1042F0005B069C0190910103992309F40CC22531BE
:104300003105C8F19F3F19F09F5F90930103AA20E8
:1043100059F00E94CF059FEF1A140CF491E0899F89
:10432000802D112480930503992059F00E94CF0518
:104330009FEF19140CF491E0899F802D1124809334
:104340000603309105033323B1F0209106032223A5
:1043500091F045EB3403C0011124992309F42FC1D6
:104360009093050345EB240390011124332309F4B2
:104370002AC130930603812F802B09F448C0809115
:10438000FF02909100030E945B069C019091FE0247
:10439000992309F4BCC125313105C8F19F3F19F0BB
:1043A0009F5F9093FE02112359F00E94AF059FEF8B
:1043B00011160CF491E0899F802D1124809307033E
:1043C000002359F00E94AF059FEF10160CF491E006
:1043D000899F802D11248093080330910703332394
:1043E000B1F020910803222391F045EB3403C00182
:1043F0001124992309F4EBC09093070345EB2403A0
:1044000090011124332309F4E6C03093080380910E
:10441000050390910603892B90910703892B9091B6
:104420000803892B11F00E94C10E85E0FE01319630
:10443000A4E0B3E001900D928A95E1F70E941B0879
:1044400090910903891721F00E941B0880930903AA
:1044500080914503843009F0E1CE85E08093E90046
:104460008091E80082FFDACE8091E80090E085FF3D
:1044700006C00E944603882309F4B1C091E08091F0
:10448000E8008B778093E800992309F4C7CE19815F
:104490001111C3C080911F03882309F4D9C0109261
:1044A0001F0381E080931E0322961FAE229723965E
:1044B0001FAE23978EEF24968FAF249763E0CE0133
:1044C0008F5B9F4F0E941505A9CE809145038430D4
:1044D00009F11092EF020FB6F894A895E0926000EF
:1044E0000FBEA092600083B7817F846083BF83B7D3
:1044F000816083BF7894889583B78E7F83BF0FB622
:10450000F894A89580916000886180936000109273
:1045100060000FBE809144038823D9F00E940C0DE7
:1045200090E090930A01809309010E94FD0A0E9485
:104530000C0BE0EFF2E0119222E0EE3FF207D9F728
:104540000E94B81EE0EFF2E081918111C1C0BE125D
:10455000FBCF80914503853009F4B7CF0E94A30FAC
:104560000E941B0864CE9F5FAA0C963009F071CEA2
:104570000F5F1F4F0E30110509F061CE8FEF669669
:104580008FAF669767968FAF679768961FAE6897ED
:104590000E94B50E8160782F6A969FAF8EAF6A97A2
:1045A00066964FAD669767965FAD679768966FADF5
:1045B00068976A968FAD6A970E94F71D77CE81E063
:1045C00080930503CFCE81E080930603D4CE81E0B3
:1045D0008093070313CF81E08093080318CF80E412
:1045E000882E912C8E010F5F1F4F8091E80085FD72
:1045F0000AC08091E8008B778093E8000E94460310
:10460000882399F33BCF8091F100F80181938F01CA
:10461000F1E08F1A910849F731CF1130C9F4229691
:104620001FAE229723961FAF23978CE0EBE1F1E0BA
:10463000D60101900D928A95E1F78EEF60968FAFCB
:1046400060976FE0CE018F5B9F4F0E941505E6CD0E
:1046500080911E038823D1F1123041F01330F9F01C
:1046600081E022968FAF229761E029CF60911903F4
:1046700070911A0380911B0390911C030E94C9063C
:1046800022961FAE229723961FAF239724968FAFB3
:1046900024978EEF25968FAF259764E010CF8A81FF
:1046A000813041F0882341F08230D1F681E080935F
:1046B0001D0302C010921D0322961FAE229783E0B5
:1046C00023968FAF239780911D03E0CF8FEFC9CF43
:1046D00009BD19BD09B400FEFDCF8091D8008F7DC2
:1046E0008093D8008091E00082608093E000809108
:1046F000E00081FDFCCF0E94A30F4FEF83EC99E017
:10470000415080409040E1F700C0000022CF232BB1
:1047100009F046CE7CCE232B09F0F6CD2CCE1F928D
:104720001FB61F9211248F939F93AF93BF938091D5
:10473000EF02811113C08091CE029091CF02A0911F
:10474000D002B091D1024196A11DB11D8093CE023D
:104750009093CF02A093D002B093D102BF91AF91BA
:104760009F918F911F901FBE1F9018951092B900B6
:104770008CE08093B8000895EF92FF920F931F93FF
:10478000CF93DF93182FEB011092BC0084EA809343
:10479000BC000E94B50E7C018091BC0087FF27C041
:1047A0008091B900887F883029F08091B900887F96
:1047B0008031D9F51093BB0084E88093BC000E943F
:1047C000B50E8C018091BC0087FF24C02091B900F8
:1047D000287F90E080E02831B1F081E090E0203443
:1047E00011F490E080E09195819591090CC0CF3F44
:1047F000DC0791F20E94B50E8E199F098C179D0758
:1048000058F28EEF9FEFDF91CF911F910F91FF90A4
:10481000EF900895CF3FDC07A9F20E94B50E801BF0
:10482000910B8C179D0770F2ECCF8FEF9FEFEBCFC2
:104830000F931F93CF93DF93EB018093BB0084E82A
:104840008093BC000E94B50E8C018091BC0087FF54
:1048500011C02091B900287F81E090E0283211F446
:1048600090E080E0919581959109DF91CF911F9122
:104870000F910895CF3FDC0741F30E94B50E801BD6
:10488000910B8C179D0708F38EEF9FEFEECF0F93E0
:104890001F93CF93DF93EC0184E88093BC000E94C8
:1048A000B50E8C018091BC0087FF08C08091BB00D1
:1048B00090E0DF91CF911F910F910895CF3FDC07DA
:1048C00089F30E94B50E801B910B8C179D0750F346
:1048D0008EEF9FEFEECF84E98093BC000895AA1B72
:1048E000BB1B51E107C0AA1FBB1FA617B70710F0DB
:1048F000A61BB70B881F991F5A95A9F7809590950D
:10490000BC01CD01089597FB072E16F4009407D043
:1049100077FD09D00E946F2407FC05D03EF49095E6
:1049200081959F4F0895709561957F4F0895EE0F83
:10493000FF1F0590F491E02D09942F923F924F9222
:104940005F926F927F928F929F92AF92BF92CF921F
:10495000DF92EF92FF920F931F93CF93DF93CDB728
:10496000DEB7CA1BDB0B0FB6F894DEBF0FBECDBFA0
:1049700009942A88398848885F846E847D848C8471
:104980009B84AA84B984C884DF80EE80FD800C817A
:104990001B81AA81B981CE0FD11D0FB6F894DEBF5D
:1049A0000FBECDBFED010895F999FECF92BD81BD37
:1049B000F89A992780B50895A6E1B0E044E050E068
:1049C0000C940E25A8E1B0E042E050E00C940E25D6
:1049D000262FF999FECF92BD81BDF89A019700B4B8
:1049E000021639F01FBA20BD0FB6F894FA9AF99A58
:1049F0000FBE08950396272F0E94E9240E94E82401
:104A0000252F0E94E924242F0C94E9240196272FB6
:104A10000E94E9240C94E824DC01CB01FC01F99903
:104A2000FECF06C0F2BDE1BDF89A319600B40D92FA
:104A300041505040B8F708950F931F93CF93DF93E1
:104A40008230910510F482E090E0E0915403F091FF
:104A5000550330E020E0B0E0A0E0309799F4211554
:104A6000310509F447C0281B390B24303105C0F546
:104A70008A819B816115710571F1FB0193838283AA
:104A8000FE0111C0408151810281138148175907ED
:104A9000F8F04817590799F4109761F012960C93A3
:104AA000129713961C933296CF01DF91CF911F91ED
:104AB0000F9108950093540310935503F4CF2115DB
:104AC000310519F04217530718F49A01BD01EF019F
:104AD000DF01F801C2CF9093550380935403D0CFE8
:104AE000FE01E20FF31F8193919322503109398324
:104AF0002883DACF2091520330915303232B41F4C2
:104B0000209102013091030130935303209352030B
:104B100020910001309101012115310541F42DB79B
:104B20003EB74091040150910501241B350B409183
:104B30005203509153034217530708F0B5CF241B7B
:104B4000350B2817390708F4AFCFBC016E5F7F4FD4
:104B50002617370708F4A8CF640F751F7093530307
:104B600060935203FA01819391939ECFCF93DF9389
:104B70000097E9F0FC01329713821282C09154032E
:104B8000D0915503DE0130E020E02097A1F4208190
:104B90003181820F931F20915203309153032817C4
:104BA000390709F067C0F0935303E0935203DF9194
:104BB000CF910895DA01AE17BF0708F040C01296F2
:104BC0004D915C9113979D014115510599F7D901BC
:104BD0001396FC93EE9312974D915D91A40FB51F20
:104BE000EA17FB0779F4808191810296840F951F63
:104BF000D90111969C938E938281938113969C93F5
:104C00008E931297B0E0A0E08A819B810097B9F55E
:104C1000FE0181919191E80FF91F809152039091CB
:104C200053038E179F0719F6109761F510925503DD
:104C300010925403D0935303C0935203B8CFB3835D
:104C4000A28340815181840F951FA817B90771F481
:104C50004E5F5F4F8D919C911197480F591F518363
:104C6000408312968D919C91938382832115310507
:104C700009F0ADCFF0935503E093540398CFDE01D4
:104C8000EC01C2CF13961C921E921297D3CFAEE0C6
:104C9000B0E0EDE4F6E20C94AB240D891E898F8917
:104CA000988D26E02C831A83098397FF02C080E049
:104CB00090E801979E838D83AE01455E5F4F698DBD
:104CC0007A8DCE0101960E9477264D815E8157FD37
:104CD0000AC02F813885421753070CF49A01020F3E
:104CE000131FF80110822E96E4E00C94C724ABE069
:104CF000B0E0EDE7F6E20C949D247C013B018A01D3
:104D0000FC0117821682838181FFB9C19AE0292EA6
:104D1000CE0101965C01F7019381F30193FD85912A
:104D200093FF81913F01882309F446C1853239F40C
:104D300093FD859193FF81913F01853229F4B7015D
:104D400090E00E945828E7CF912C412C512CFFE194
:104D5000F51538F08B3209F188F4803201F1833295
:104D600021F157FC3AC020ED280F2A3040F556FEBD
:104D70001FC0929C200D1124922E06C08D3291F0FE
:104D8000803379F7689450F8F30193FD859193FF90
:104D900081913F018111DBCF20C0689451F8689464
:104DA00052F8F2CF689453F8EFCF689454F8ECCFF0
:104DB000429C200D1124422E689455F8E5CF8E3286
:104DC00029F456FCF9C0689456F8DECF8C3619F4F5
:104DD000689457F8D9CF8836B9F2982F9F7D9554AB
:104DE0009330C0F08336A1F18337C1F1833509F0E8
:104DF0005BC0F801C190D1908F01692D70E056FC25
:104E000002C06FEF7FEFC6010E9442284C016894F8
:104E100057F80AC00C5F1F4F2FE32983882483941F
:104E2000912C6501E89457F853FC04C04814190408
:104E300009F018F5342C8114910431F5332009F46C
:104E40006ACFB70180E290E00E9458283A94F6CFEA
:104E5000F801808189830E5F1F4FE0CFF801C19078
:104E6000D1908F01692D70E056FC02C06FEF7FEF8B
:104E7000C6010E944D284C01D5CFB70180E290E0D9
:104E80000E9458284A94D2CFF60157FC859157FECC
:104E900081916F01B70190E00E94582831103A9437
:104EA000F1E08F1A9108C7CF843619F0893609F0DE
:104EB00074C0F80157FE6AC061917191819191911E
:104EC0008F01252D2F76D22E97FF09C090958095C2
:104ED000709561957F4F8F4F9F4F6894D7F82AE068
:104EE00030E0A5010E948828C82ECA188C2C5D2CA1
:104EF000D6FE0CC0E89450F8C91440F4D4FE05C0A6
:104F0000D2FC03C0FD2DFE7E5F2E892C54FE8FC087
:104F1000FE01EC0DF11D8081803309F081C0252D4B
:104F2000297E522E852D8870382E53FC8FC050FE5E
:104F300089C09C2C841418F44C0C942C981854FEA2
:104F40008BC0B70180E390E00E94582852FE09C050
:104F500088E790E051FE02C088E590E0B7010E942A
:104F60005828C91408F484C0CA94D12C9FEFC91AD8
:104F7000D90ACA0CDB1CF60182916F01B70190E0DF
:104F80000E945828AC14BD04B1F758CF61917191BB
:104F9000072E000C880B990B93CFD52CE894D4F8EE
:104FA0002AE030E0853739F1952D997FD92E8F365B
:104FB00001F148F48835A9F0F701868197812B9695
:104FC000E2E10C94B924803749F08837A9F7D4FE80
:104FD00002C06894D2F820E130E00DC06894D4F8A3
:104FE000F6CF54FE03C0E92FE660DE2E20E132E06A
:104FF00002C028E030E0F801D7FE0DC06191719148
:10500000819191918F01A5010E948828C82ECA180C
:10501000E894D7F86BCF6191719190E080E0F2CF86
:1050200052FC02C083947ECF839483947BCF852DE2
:10503000867809F477CFF6CFB70180E290E00E943E
:10504000582883948414C0F3312C79CF342C381829
:10505000841408F474CFF8CF852D867809F481CFB5
:105060008BE251FE80E257FC8DE2B70190E077CFF2
:10507000B70180E390E00E9458289A9472CF8FEF96
:105080009FEF9DCFFC010590615070400110D8F753
:10509000809590958E0F9F1F0895FC016150704080
:1050A00001900110D8F7809590958E0F9F1F08955D
:1050B0000F931F93CF93DF93182F092FEB018B8151
:1050C00081FD09C01FEF0FEF812F902FDF91CF914E
:1050D0001F910F91089582FF14C02E813F818C8112
:1050E0009D81281739073CF4E881F981CF010196A9
:1050F0009983888310838E819F8101969F838E83FD
:10510000E3CFE885F985812F0995892BA1F3DACFC3
:10511000FA01AA27283051F1203181F1E8946F93E8
:105120006E7F6E5F7F4F8F4F9F4FAF4FB1E03ED08E
:10513000B4E03CD0670F781F891F9A1FA11D680F2C
:10514000791F8A1F911DA11D6A0F711D811D911D5F
:10515000A11D20D009F468943F912AE0269F1124D4
:105160003019305D3193DEF6CF010895462F477038
:10517000405D4193B3E00FD0C9F7F6CF462F4F7093
:10518000405D4A3318F0495D31FD4052419302D0F1
:10519000A9F7EACFB4E0A695979587957795679597
:1051A000BA95C9F700976105710508959B01AC0197
:1051B0000A2E06945795479537952795BA95C9F7BE
:1051C000620F731F841F951FA01D0895F894FFCFD1
:1051D000680A680A710A710A730A710A710A710A07
:1051E000680A680A780A710A710A780AE40AF00AF9
:1051F000F50AEE0AF30AFA0AF80AD9100111561252
:105200000111561234115511561201120E12D518F1
:10521000D5185E195E19B219CE194D1B0B19D91983
:10522000B11AC21AC21A571B841B611B641B6B1B69
:04523000671B701B6D
:10523400000056032000FA000120001205750B54EB
:105244000B500B4C0B010A25640A00415058425282
:105254002F717657304C00000D010D020D030D0423
:105264000D050D000C010C020C030C040C050C00C4
:105274000B010B020B030B040B050B000A010A02C2
:105284000A030A040A050A000901090209030904B8
:1052940009050900080108020803080408050800B4
:1052A40007010702070307040705070006010602B2
:1052B40006030604060506000501050205030504A8
:1052C40005050500040104020403040404050400A4
:1052D40003010302030303040305030002010202A2
:1052E4000203020402050200010101020103010498
:1052F4000105010000010002000300040005008113
:105304008283E200E900EA00B500B600B700CD00F0
:105314008301CC008A019201940121022302240218
:105324002502260227022A02B300B4006F0070008F
:10533400404D6D66011901AC001E0537055005008E
:00000001FF
